:020000040800F2
:1000000080070020D5010008E7060008DF06000889
:10001000E30600088D040008770D000800000000CA
:10002000000000000000000000000000DD090008E2
:10003000910400080000000059070008F10A0008B8
:10004000EF010008EF010008EF010008EF010008D0
:10005000EF010008EF010008EF010008EF010008C0
:10006000EF010008EF010008EF010008EF010008B0
:10007000EF010008EF010008EF010008EF010008A0
:10008000EF010008EF010008EF010008EF01000890
:10009000EF010008EF010008EF010008EF01000880
:1000A000EF010008EF010008EF010008EF01000870
:1000B000EF010008EF010008EF010008EF01000860
:1000C000EF010008EF010008EF010008EF01000850
:1000D000EF010008550B0008EF010008EF010008D0
:1000E000EF010008EF010008EF010008EF01000830
:1000F000EF010008EF010008EF010008EF01000820
:10010000EF010008EF010008EF010008EF0100080F
:10011000EF010008EF010008EF010008EF010008FF
:10012000EF010008EF010008EF010008EF010008EF
:1001300000F002F800F03FF80AA090E8000C8244BA
:100140008344AAF10107DA4501D100F034F8AFF297
:10015000090EBAE80F0013F0010F18BFFB1A43F0A5
:1001600001031847EC0D00000C0E0000103A24BFEC
:1001700078C878C1FAD8520724BF30C830C144BF0C
:1001800004680C607047000000230024002500264E
:10019000103A28BF78C1FBD8520728BF30C148BFEA
:1001A0000B607047642900F07780002070471FB50E
:1001B0001FBD10B510BD00F037F91146FFF7F7FF6E
:1001C00000F03CFE00F055F903B4FFF7F2FF03BC6A
:1001D00000F0D3FD0948804709480047FEE7FEE7E5
:1001E000FEE7FEE7FEE7FEE7FEE7FEE7FEE7FEE7E7
:1001F00004480549054A064B70470000F50A000807
:1002000031010008800100208007002080030020C9
:1002100080030020704700000FB4044910B503AA02
:10022000029800F0D3F810BC5DF814FB2C000020FD
:100230002DE9F0410E460446002020622046E16888
:10024000884730B3252805D0D4E901219047206A9A
:10025000401CF2E7E168204600278847050018D0D7
:10026000A5F14100192802D820354FF40067324625
:10027000294620462760FFF795FF40B1012804D0AA
:10028000F61D26F007060836D8E7361DD6E72846BD
:10029000DAE7206ABDE8F0812DE9F0410646002446
:1002A00010687529314616A510D0AFF300800028DC
:1002B00002DA404213A507E031688A0701D512A58A
:1002C00002E0490704D511A5012401E0AFF3008045
:1002D00000210A2206F1240709E0B0FBF2FCB0FB82
:1002E000F2F302FB1C00303078541846491C0028F9
:1002F000F3D123462A463046BDE8F04100F00CB861
:10030000000000002D0000002B0000002000000075
:1003100070477047704770472DE9F0470D46994682
:100320009246044600F124080168880604D5E06975
:1003300021F01001216000E00120A84201DD471BEF
:1003400000E00027A1697A1902EB0900081AA061F0
:100350002078C00602D42046AFF30080002608E0D3
:10036000D4E901211AF806009047206A401C761C47
:1003700020624E45F4DB2078C0060AD52046AFF354
:10038000008006E0D4E9012130209047206A401C1B
:100390002062381EA7F10107F4DC07E0D4E901214F
:1003A00018F805009047206A401C2062281EA5F11D
:1003B0000105F3DC2046AFF300802078000602D56B
:1003C0000220BDE8F0870120FBE70000074B70B575
:1003D0000D467B4400F011F80446284600F020F852
:1003E00010B14FF0FF3070BD204670BD4B0A0000C9
:1003F00001694A1C02610878704700B58FB0CDE9E9
:1004000001310021059105497944CDE903101146D8
:100410006846FFF70DFF0FB000BD0000E5FFFFFFCE
:10042000007B00F080007047754600F02BF8AE4668
:1004300005006946534620F00700854618B020B5F0
:10044000FFF7D6FEBDE820404FF000064FF0000752
:100450004FF000084FF0000B21F00701AC46ACE86C
:10046000C009ACE8C009ACE8C009ACE8C0098D46D9
:10047000704710B50446AFF300802046BDE8104039
:10048000FFF7A2BE004870472001002000BFFEE732
:100490007047000010B5044600F080F800F062F8E4
:1004A0004FF480510B4800F016F9202000F06AFA52
:1004B000C4F3074000F066FAC4F3072000F062FAC4
:1004C000E0B200F05FFA4FF48051024800F005F905
:1004D00010BD0000000C014008B50121082000F00B
:1004E0004DF910208DF803000002ADF80000032044
:1004F0008DF802006946034800F062F800F0B8F990
:1005000008BD0000000C01402DE9F04104460D46F5
:10051000164600F027F84FF48051114800F0DBF840
:10052000032000F02FFAC4F3074000F02BFAC4F3C5
:10053000072000F027FAE0B200F024FA002706E0D6
:10054000FF2000F01FFA28706D1C781C87B2B7429C
:10055000F6DB4FF48051024800F0BFF8BDE8F081AF
:10056000000C014010B500244FF480510A4800F0FF
:10057000B2F8052000F006FA00BFFF2000F002FAF2
:10058000044604F001000028F7D14FF480510248DE
:1005900000F0A3F810BD0000000C014010B54FF4AE
:1005A0008051064800F097F8062000F0EBF94FF470
:1005B0008051024800F091F810BD0000000C01408D
:1005C0002DE9F041024600250026002000230024EA
:1005D000002791F803C00CF00F0591F803C00CF050
:1005E000100CBCF1000F03D091F802C04CEA0505D5
:1005F00091F800C0BCF1000F31D0146800202BE04E
:100600004FF0010C0CFA00F3B1F800C00CEA03063D
:100610009E4220D183004FF00F0C0CFA03F7BC432D
:1006200005FA03FC4CEA040491F803C0BCF1280F5E
:1006300006D14FF0010C0CFA00FCC2F814C00AE01D
:1006400091F803C0BCF1480F05D14FF0010C0CFA32
:1006500000FCC2F810C0401C0828D1D31460B1F8C7
:1006600000C0BCF1FF0F34DD546800202EE000F123
:10067000080C4FF0010808FA0CF3B1F800C00CEABE
:1006800003069E4221D183004FF00F0C0CFA03F7B2
:10069000BC4305FA03FC4CEA040491F803C0BCF126
:1006A000280F05D100F1080C08FA0CF8C2F81480E4
:1006B00091F803C0BCF1480F07D100F1080C4FF0CE
:1006C000010808FA0CF8C2F81080401C0828CED3A4
:1006D0005460BDE8F081416170470161704700BF1F
:1006E000FEE700BFFEE7704770B5002100230F2230
:1006F000C47804B3154C246804F4E064C4F5E064E1
:10070000210AC1F10403CA40447804FA03F1847851
:100710001440214309010E4C0678A155047804F0D9
:100720001F050124AC4005786D11AD0005F1E025F1
:10073000C5F8004109E0047804F01F050124AC402D
:10074000044D0678761145F8264070BD0CED00E0AA
:1007500000E400E080E100E07047000029B1064AB3
:10076000D2690243044BDA6104E0034AD26982434E
:10077000014BDA61704700000010024029B1064ABF
:1007800092690243044B9A6104E0034A92698243EE
:10079000014B9A61704700000010024030B5002103
:1007A0000022002400232D4D6D6805F00C0121B1BD
:1007B000042905D0082923D105E0294D056022E050
:1007C000274D05601FE0254D6D6805F47012234D1F
:1007D0006D6805F48034022505EB92421CB9214D69
:1007E000554305600BE01D4D6D6805F400351DB1E6
:1007F0001C4D5543056002E0194D5543056002E06C
:10080000174D056000BF00BF144D6D6805F0F00185
:100810000909154D6B5C0568DD4045600F4D6D683D
:1008200005F4E061090A104D6B5C4568DD408560A8
:100830000A4D6D6805F46051C90A0B4D6B5C456843
:10084000DD40C560054D6D6805F44041890B074DDD
:100850006B5CC568B5FBF3F5056130BD0010024067
:1008600000127A0000093D00180000202800002036
:1008700000B587B001210820FFF780FF0121880320
:10088000FFF76CFF18208DF8070003208DF8060095
:100890004FF40050ADF8040001A91C48FFF790FE8A
:1008A0004FF48040ADF8040001A91848FFF788FE16
:1008B0004FF40040ADF8040001A91448FFF780FE92
:1008C0000020ADF814000120ADF810000220ADF8B2
:1008D0000E000720ADF818000020ADF80C00ADF8B0
:1008E0000800ADF816004FF48270ADF80A004FF41E
:1008F0000070ADF812000121054800F00BF802A9C4
:10090000034800F021F807B000BD0000000C0140D2
:100910000038004021B1028842F04002028004E029
:1009200002884FF6BF731A400280704702460020CB
:1009300013890B400BB1012000E0002070470146F5
:10094000888970478181704710B50022028802F4BF
:1009500041520B884C8823438C882343CC88234303
:100960000C8923434C8923438C892343CC8923431B
:100970001A430280838B4FF2FF74234083830B8AD8
:10098000038210BD70B504464FF6FF7505E0281EC2
:10099000A5F101018DB200D170BD02210E48FFF713
:1009A000C5FF0028F3D021460B48FFF7CBFF4FF6D9
:1009B000FF7505E0281EA5F101018DB200D1EBE71E
:1009C00001210548FFF7B2FF0028F3D00248FFF7E6
:1009D000B6FFC0B2E0E7000000380040704710B535
:1009E00000F002F810BD00000CB50020019000904E
:1009F0003348006840F480303149086000BF304817
:100A0000006800F4003000900198401C01900098AC
:100A100018B90198B0F5A06FF1D12948006800F429
:100A2000003010B10120009001E0002000900098FB
:100A3000012843D12348006840F010002149086094
:100A40000846006820F0030008600846006840F08F
:100A5000020008601A484068194948600846406822
:100A600048600846406840F4806048600846406836
:100A700020F47C1048600846406840F4E810486064
:100A80000846006840F08070086000BF0C480068AD
:100A900000F000700028F9D00948406820F00300F9
:100AA000074948600846406840F00200486000BFBF
:100AB0000348406800F00C000828F9D10CBD000084
:100AC0000010024000200240042808D14FF0E0212D
:100AD000096941F004014FF0E022116107E04FF095
:100AE000E021096921F004014FF0E0221161704713
:100AF0007047000010B51348006840F0010011492C
:100B0000086008464068104908400E494860084699
:100B100000680E4908400B4908600846006820F448
:100B2000802008600846406820F4FE0048604FF4CA
:100B30001F008860FFF753FF4FF000600449086012
:100B400010BD0000001002400000FFF8FFFFF6FE9D
:100B500008ED00E010B540F225511D4800F04AF8BC
:100B600010B31B4800F002F9C4B21A48008800F420
:100B70000040C8B91748008800F4804060B10A2CD2
:100B800003D000201349088020E01248008840F478
:100B900000401049088019E00D2C06D10D4800884E
:100BA00040F480400B49088010E00A480088C0F3F8
:100BB0000D0009490C5407480088401C054908806D
:100BC00008460088C72801DD0020088010BD00000D
:100BD00000380140300000205800002021B18289F7
:100BE00042F40052828104E082894DF6FF731A407C
:100BF0008281704770B50246002400230025002042
:100C000040F66A16B14200D100BFC1F3421501F0AF
:100C10001F03012606FA03F3012D02D19689334002
:100C200006E0022D02D1168A334001E0968A334055
:100C30000C12012606FA04F41688344013B10CB1E4
:100C4000012000E0002070BDF0B50346002400261E
:100C50000025002040F66A17B94200D100BF1846AF
:100C6000C1F3421401F01F06012707FA06F5012C13
:100C700001D10C3004E0022C01D1103000E014301E
:100C80001AB107682F43076002E00768AF430760A7
:100C9000F0BD00002DE9F04786B005460E46002461
:100CA000A24600BFA1460027B08900B100BF2F4671
:100CB0002C8A4CF6FF700440F08804432C82AC89E7
:100CC0004EF6F3100440B088318908437189084317
:100CD0000443AC81AC8A4FF6FF400440B089044322
:100CE000AC8201A8FFF75AFD1F48874202D1DDF808
:100CF00010A001E0DDF80CA0A88900F4004040B18C
:100D00000AEBCA0000EB0A1031684900B0FBF1F8A9
:100D100007E00AEBCA0000EB0A1031688900B0FB5B
:100D2000F1F86420B8FBF0F004012009642101FB14
:100D30001089A88900F4004040B1322000EBC900BE
:100D4000B0FBF1F000F00700044308E0322000EBB4
:100D500009106421B0FBF1F000F00F0004432C8176
:100D600006B0BDE8F08700000038014001468888E1
:100D7000C0F30800704700BFFEE700BF70470000E7
:100D800010B56FF00400FFF79FFE0A4800680A499B
:100D9000B0FBF1F0094908700846007800EB40010B
:100DA000C1EBC0104FF6FF7101EAC0000449088092
:100DB00010BD00000400002000127A003200002064
:100DC0003400002010B50020134908801BE01248B1
:100DD0000088372803D1104800880F4908800E4842
:100DE0000088382803D10C4800880B4908800A493C
:100DF0000988142202EB0130FFF74CFB06480088FB
:100E0000401C0549088004480088B0F5006FDEDB0F
:100E100002A0FFF701FA10BD000000204F6B000098
:100E200000BF054A128802F04002002AF9D0C2B27F
:100E3000014B1B1D1A80704700380140FFF7A0FFCF
:100E40004FF4E13000F034F8FFF746FBFFF78AFB80
:100E5000FFF7B8FF024800F005F800BFFEE700000A
:100E6000E07F030010B5044620220D492046FFF71D
:100E70004BFBFFF777FB00200A4908800BE008488E
:100E8000084A1288815C08A0FFF7C6F90548008867
:100E9000401C04490880034800882028EFDB10BD6F
:100EA0003800002000000020256420200000000001
:100EB00010B586B00446012144F20400FFF75EFC41
:100EC0004FF40070ADF8140003208DF816001820C0
:100ED0008DF8170005A91C48FFF772FB4FF48060DE
:100EE000ADF8140004208DF8170005A91648FFF787
:100EF00067FB25208DF8000003208DF801008DF898
:100F0000020001208DF803006846FFF7EDFB019415
:100F10000020ADF80800ADF80A00ADF80C00ADF8FF
:100F200010000C20ADF80E0001A90848FFF7B2FE32
:100F3000012240F225510548FFF786FE01210348B2
:100F4000FFF74CFE06B010BD00080140003801401C
:100F5000700F000800000020380000006C0100083D
:100F6000A80F00083800002048070000880100088A
:100F70000000000000A24A04000000000000000081
:100F8000010203040607080900000000010203042F
:100F90000102030406070809020406080000000015
:080FA000000000000000000049
:0400000508000131BD
:00000001FF
