:1000C6007D027C007F017E00120003E4FDFC7F02BE
:1000D600FE120003E4FDFC7F03FE1200037D027C9A
:1000E600007F047E001200037D017C007F057E00F8
:1000F600120003E4FDFC7F06FE1200037D017C0076
:100106007F077E001200037D057C007F087E0012BB
:04011600000380ACB6
:0A011A00EF1FAC0670011E4C600FD1
:0D012400007508027509C7D509FDD508FA58
:0301310080E72242
:100134003F065B4F666D7D077F6F777C395E797113
:10000300EE705BEF14B40800505490001B75F003BE
:10001300A4C58325F0C5837302005B020057020069
:100023004F02004B02004302003F0200370200333D
:10003300C2A28002D2A2C2A3C2A48022C2A2800210
:10004300D2A2D2A3C2A48016C2A28002D2A2C2A309
:10005300D2A4800AC2A28002D2A2D2A3D2A4EC70FC
:1000630061EDB40900505B900071F8282873020019
:10007300B402008C02009102009602009B0200A0D1
:100083000200A50200AA0200AF900135802690016C
:10009300368021900137801C9001388017900139F8
:1000A300801290013A800D90013B800890013C80C2
:1000B30003900134E493F5807F017E0012011AE47A
:0200C300F580C6
:0100C5002218
:03000000020144B6
:0C014400787FE4F6D8FD7581090200C642
:00000001FF
