:020000040800F2
:1000000050070020CD010008190600086B04000805
:10001000150600087D020008D30A00080000000051
:10002000000000000000000000000000750800084B
:10003000810200080000000051080008890900083A
:10004000E7010008E7010008E7010008E7010008F0
:10005000E7010008E7010008E7010008E7010008E0
:10006000E7010008E7010008E7010008E7010008D0
:10007000E7010008E7010008E7010008E7010008C0
:10008000E7010008E7010008E7010008E7010008B0
:10009000E7010008E7010008E7010008E7010008A0
:1000A000E7010008E7010008E7010008E701000890
:1000B000E7010008E7010008E7010008E701000880
:1000C000E7010008E7010008E7010008E701000870
:1000D000E7010008ED090008E7010008E701000852
:1000E000E7010008E7010008E7010008E701000850
:1000F000E7010008E7010008E7010008E701000840
:10010000E7010008E7010008E7010008E70100082F
:10011000E7010008E7010008E7010008E70100081F
:10012000E7010008E7010008E7010008E70100080F
:1001300000F002F800F03AF80AA090E8000C8244BF
:100140008344AAF10107DA4501D100F02FF8AFF29C
:10015000090EBAE80F0013F0010F18BFFB1A43F0A5
:10016000010318473810000058100000103A24BF4F
:1001700078C878C1FAD8520724BF30C830C144BF0C
:1001800004680C607047000000230024002500264E
:10019000103A28BF78C1FBD8520728BF30C148BFEA
:1001A0000B6070471FB51FBD10B510BD00F033F8D0
:1001B0001146FFF7F7FF00F0D9FC00F051F803B447
:1001C000FFF7F2FF03BC00F086FC000009488047FF
:1001D00009480047FEE7FEE7FEE7FEE7FEE7FEE729
:1001E000FEE7FEE7FEE7FEE704480549054A064B41
:1001F000704700008D0900083101000850010020FF
:100200005007002050030020500300207047704723
:10021000704770477047754600F02CF8AE460500F1
:100220006946534620F00700854618B020B5FFF711
:10023000DBFFBDE820404FF000064FF000074FF015
:1002400000084FF0000B21F00701AC46ACE8C009F4
:10025000ACE8C009ACE8C009ACE8C0098D467047FD
:1002600010B50446AFF300802046BDE81040FFF70C
:10027000A6BF000000487047F000002000BFFEE766
:10028000704770B5044600F04FF9A02000F076F9F1
:1002900000F00CF9204600F071F900F007F900F0C9
:1002A00043F9A12000F06AF900F000F900F018F914
:1002B000054600F0E3F800F04FF9284670BD2DE93F
:1002C000F04105460E461446002700BF08E02846C8
:1002D000FFF7D7FF2070641C681CC5B2781CC7B23A
:1002E000B742F4DBBDE8F08170B505460C4600F07E
:1002F0001BF9A02000F042F900F0D8F8284600F0E1
:100300003DF900F0D3F8204600F038F900F0CEF8BF
:1003100000F022F90A2000F003FC70BD70B505461C
:100320000C4606E021782846FFF7DEFF681CC5B2C0
:10033000641C20780028F5D170BD2DE9F0410246FB
:1003400000250026002000230024002791F803C088
:100350000CF00F0591F803C00CF0100CBCF1000F6D
:1003600003D091F802C04CEA050591F800C0BCF139
:10037000000F31D0146800202BE04FF0010C0CFA74
:1003800000F3B1F800C00CEA03069E4220D18300BE
:100390004FF00F0C0CFA03F7BC4305FA03FC4CEAD0
:1003A000040491F803C0BCF1280F06D14FF0010CF2
:1003B0000CFA00FCC2F814C00AE091F803C0BCF1CA
:1003C000480F05D14FF0010C0CFA00FCC2F810C028
:1003D000401C0828D1D31460B1F800C0BCF1FF0F55
:1003E00034DD546800202EE000F1080C4FF00108C5
:1003F00008FA0CF3B1F800C00CEA03069E4221D1C2
:1004000083004FF00F0C0CFA03F7BC4305FA03FC12
:100410004CEA040491F803C0BCF1280F05D100F1A7
:10042000080C08FA0CF8C2F8148091F803C0BCF16B
:10043000480F07D100F1080C4FF0010808FA0CF83A
:10044000C2F81080401C0828CED35460BDE8F0816B
:100450000246002093680B400BB1012000E0002011
:100460007047416170470161704700BFFEE700209F
:1004700001E0411CC8B20A28FBDB704710B54021DF
:100480000948FFF7EEFF80210748FFF7ECFFFFF771
:10049000EEFF40210448FFF7E6FFFFF7E8FF802169
:1004A0000148FFF7DEFF10BD000C014010B58021B0
:1004B0000A48FFF7D8FF40210848FFF7D4FFFFF7AD
:1004C000D6FF80210548FFF7C3FF0446FFF7CFFFA3
:1004D00040210248FFF7C5FF204610BD000C014037
:1004E00070B5002580210F48FFF7BDFF002415E0FF
:1004F00040210C48FFF7B5FFFFF7B9FF402109483D
:10050000FFF7B1FF80210748FFF7A2FF10B180205D
:1005100020410543FFF7ABFF601CC4B2082CE7DBAA
:10052000284670BD000C014010B540210948FFF776
:100530009AFF80210748FFF796FFFFF798FF802179
:100540000448FFF78EFFFFF792FF40210148FFF7B5
:1005500088FF10BD000C014010B580210648FFF750
:1005600080FF40210448FFF77EFFFFF780FF8021D6
:100570000148FFF778FF10BD000C014070B505463B
:1005800040211348FFF76DFF00241AE0802020412E
:10059000284020B180210E48FFF765FF03E080214D
:1005A0000B48FFF75EFFFFF762FF40210848FFF7A7
:1005B0005AFFFFF75CFF40210548FFF752FF601C20
:1005C000C4B2082CE2DB80210148FFF74CFF70BD6C
:1005D000000C014008B50121082000F03BF9012181
:1005E000082000F037F914208DF803004020ADF802
:1005F000000003208DF8020069460548FFF79DFEC4
:100600008020ADF8000069460148FFF796FE08BD5E
:10061000000C014000BFFEE7704710B5C82000F095
:100620007FFA0121AE2000F0F7F80121002000F050
:10063000F3F80121102000F0EFF80121402000F034
:10064000EBF80121B02000F0E7F80121812000F053
:10065000E3F80121FF2000F0DFF80121A12000F0E4
:10066000DBF80121A62000F0D7F80121A82000F036
:10067000D3F801213F2000F0CFF80121C82000F07D
:10068000CBF80121D32000F0C7F80121002000F0B1
:10069000C3F80121D52000F0BFF80121802000F02F
:1006A000BBF80121D82000F0B7F80121052000F0A7
:1006B000B3F80121D92000F0AFF80121F12000F0BA
:1006C000ABF80121DA2000F0A7F80121122000F098
:1006D000A3F80121DB2000F09FF80121302000F079
:1006E0009BF801218D2000F097F80121142000F0E3
:1006F00093F80121AF2000F08FF810BD70B50024F1
:1007000019E004F1B001C8B2012100F085F801211F
:10071000002000F081F80121102000F07DF8002574
:1007200005E00021084600F077F8681CC5B2802D6E
:10073000F7DB601CC4B2082CE3DB70BD70B5044667
:100740000D4605F1B001C8B2012100F065F804F0D2
:100750000F00012100F060F804F0F001102242EADD
:100760002110012100F058F870BD00002DE9F04182
:1007700080460D461646A6F12000C7B229464046DF
:10078000FFF7DCFF00240AE013490968102202FB8E
:100790000711085D002100F03FF8601CC4B20E484C
:1007A0000079A042F0DC681CC1B24046FFF7C6FFEA
:1007B00000240BE008490968102202FB07112144BC
:1007C000087A002100F028F8601CC4B202480079C1
:1007D000A042EFDCBDE8F0812000002070B50546A6
:1007E0000E46144611E0782D05DD0025B01CC6B27A
:1007F000062E00DD0026227831462846FFF7B6FF98
:10080000044800792844C5B2641C20780028EAD145
:1008100070BD00002000002070B505460C46FFF7B3
:1008200083FE7820FFF7AAFEFFF740FE1CB10020F0
:10083000FFF7A4FE02E04020FFF7A0FEFFF736FE20
:100840002846FFF79BFEFFF731FEFFF785FE70BDE0
:100850007047000029B1064A92690243044B9A612D
:1008600004E0034A92698243014B9A617047000099
:1008700000100240704710B500F002F810BD0000F3
:100880000CB50020019000903348006840F480309F
:100890003149086000BF3048006800F40030009023
:1008A0000198401C0190009818B90198B0F5A06F0C
:1008B000F1D12948006800F4003010B10120009007
:1008C00001E0002000900098012843D123480068EF
:1008D00040F01000214908600846006820F003003D
:1008E00008600846006840F0020008601A48406846
:1008F000194948600846406848600846406840F426
:10090000806048600846406820F47C1048600846D3
:10091000406840F4E81048600846006840F0807085
:10092000086000BF0C48006800F000700028F9D093
:100930000948406820F003000749486008464068BD
:1009400040F00200486000BF0348406800F00C001F
:100950000828F9D10CBD0000001002400020024020
:10096000042808D14FF0E021096941F004014FF05B
:10097000E022116107E04FF0E021096921F0040154
:100980004FF0E022116170477047000010B5134826
:10099000006840F0010011490860084640681049AD
:1009A00008400E494860084600680E4908400B4957
:1009B00008600846006820F4802008600846406807
:1009C00020F4FE0048604FF41F008860FFF753FFDB
:1009D0004FF000600449086010BD000000100240A4
:1009E0000000FFF8FFFFF6FE08ED00E010B540F252
:1009F00025511D4800F03EF810B31B4800F064F884
:100A0000C4B21A48008800F40040C8B917480088EA
:100A100000F4804060B10A2C03D000201349088004
:100A200020E01248008840F400401049088019E096
:100A30000D2C06D10D48008840F480400B490880F9
:100A400010E00A480088C0F30D0009490C5407481B
:100A50000088401C0549088008460088C72801DD39
:100A60000020088010BD0000003801401800002060
:100A70002800002070B50246002400230025002035
:100A800040F66A16B14200D100BFC1F3421501F031
:100A90001F03012606FA03F3012D02D19689334084
:100AA00006E0022D02D1168A334001E0968A3340D7
:100AB0000C12012606FA04F41688344013B10CB166
:100AC000012000E0002070BD01468888C0F30800C6
:100AD000704700BFFEE700BF7047000010B56FF021
:100AE0000400FFF73DFF0A4800680A49B0FBF1F037
:100AF000094908700846007800EB4001C1EBC010BE
:100B00004FF6FF7101EAC0000449088010BD0000E3
:100B10000000002000127A001A0000201C000020B3
:100B20000146114A12884A434FF0E0235A610022DD
:100B30009A611A46126942F001021A6100BF4FF031
:100B4000E022106900F001021AB100F48032002A9C
:100B5000F5D04FF0E022126922F001024FF0E023BD
:100B60001A6100229A6170471C0000200EB5002017
:100B7000009001900290FFF7B1FFFFF72BFDFFF708
:100B80004CFDFFF7BBFD08A10120FFF7C7FB6A463C
:100B900003210120FFF793FB6A4600210846FFF777
:100BA0001DFE00BFFEE70000667A7900000000002D
:100BB000000000000000000000000000000000F83D
:100BC00000000000000000333000000000100C06A0
:100BD000100C0600000000000000000040C078403B
:100BE000C0784000043F04043F040400007088FC07
:100BF00008300000001820FF211E0000F008F0005F
:100C0000E018000000211C031E211E0000F00888CF
:100C1000700000001E2123241927211010160E0039
:100C2000000000000000000000000000000000E0E4
:100C300018040200000000071820400000020418F9
:100C4000E00000000040201807000000404080F055
:100C5000804040000202010F01020200000000F08B
:100C6000000000000101011F01010100000000005F
:100C70000000000080B070000000000000000000D4
:100C8000000000000001010101010101000000005D
:100C900000000000003030000000000000000000F4
:100CA00080601804006018060100000000E01008D1
:100CB0000810E000000F102020100F00001010F8A6
:100CC000000000000020203F2020000000700808E5
:100CD0000888700000302824222130000030088865
:100CE000884830000018202020110E000000C0208D
:100CF00010F8000000070424243F240000F80888AE
:100D0000880808000019212020110E0000E010883A
:100D100088180000000F112020110E00003808086C
:100D2000C83808000000003F00000000007088087C
:100D300008887000001C222121221C0000E01008FD
:100D40000810E0000000312222110F00000000C056
:100D5000C0000000000000303000000000000080F3
:100D600000000000000080600000000000008040E3
:100D700020100800000102040810200040404040FC
:100D8000404040000404040404040400000810204F
:100D90004080000000201008040201000070480894
:100DA0000808F0000000003036010000C030C828FC
:100DB000E810E0000718272423140B000000C038B7
:100DC000E0000000203C23020227382008F8888831
:100DD00088700000203F202020110E00C03008083D
:100DE00008083800071820202010080008F8080814
:100DF0000810E000203F202020100F0008F888880D
:100E0000E8081000203F20202320180008F88888D8
:100E1000E8081000203F200003000000C030080850
:100E20000838000007182020221E020008F80800D9
:100E30000008F808203F210101213F20000808F8A0
:100E4000080800000020203F2020000000000808C3
:100E5000F8080800C08080807F00000008F888C083
:100E600028180800203F20012638200008F8080034
:100E700000000000203F20202020300008F8F8006B
:100E8000F8F80800203F003F003F200008F830C07D
:100E90000008F808203F200007183F00E01008086D
:100EA0000810E0000F10202020100F0008F808089C
:100EB0000808F000203F210101010000E0100808AF
:100EC0000810E0000F18242438504F0008F88888D4
:100ED00088887000203F2000030C302000708808B4
:100EE000080838000038202121221C00180808F8C2
:100EF000080818000000203F2000000008F8080043
:100F00000008F808001F202020201F000878880013
:100F100000C83808000007380E010000F80800F883
:100F20000008F800033C0700073C0300081868802D
:100F30008068180820302C03032C30200838C800A3
:100F4000C83808000000203F2000000010080808F2
:100F5000C83808002038262120201800000000FE94
:100F6000020202000000007F40404000000C30C040
:100F700000000000000000010638C000000202026C
:100F8000FE000000004040407F000000000004021E
:100F90000202040000000000000000000000000049
:100FA0000000000080808080808080800002020439
:100FB0000000000000000000000000000000808031
:100FC000808000000019242222223F2008F800809F
:100FD00080000000003F112020110E000000008062
:100FE00080800000000E11202020110000000080F1
:100FF0008088F800000E112020103F200000808023
:1010000080800000001F222222221300008080F036
:10101000888888180020203F202000000000808061
:1010200080808000006B94949493600008F80080A6
:1010300080800000203F210000203F200080989801
:10104000000000000020203F202000000000008061
:101050009898000000C08080807F000008F80000A1
:1010600080808000203F24022D302000000808F8F6
:10107000000000000020203F2020000080808080B1
:1010800080808000203F20003F20003F8080008043
:1010900080800000203F210000203F200000808051
:1010A00080800000001F202020201F008080008002
:1010B0008000000080FFA12020110E0000000080B1
:1010C00080808000000E112020A0FF8080808000A2
:1010D0008080800020203F212000010000008080CF
:1010E000808080000033242424241900008080E0C4
:1010F000808000000000001F202000008080000091
:1011000000808000001F202020103F208080800071
:101110000080808000010E30080601008080008081
:10112000008080800F300C030C300F0000808000A6
:10113000808080000020312E0E31200080808000D1
:101140000080808080818E70180601000080808081
:10115000808080000021302C22213000000000001F
:10116000807C020200000000003F404000000000C0
:10117000FF00000000000000FF0000000002027CF1
:10118000800000000040403F000000000006010118
:10119000020204040000000000000000BC1100086E
:1011A00000000020280000006C010008E411000885
:1011B00028000020280700008801000800A24A0437
:1011C00000000000000000000102030406070809F7
:1011D000000000000000000000000000AC0B000850
:0411E00008100000F3
:0400000508000131BD
:00000001FF
