:020000040800F2
:1000000078060020CD010008790400089903000853
:10001000E10300087D020008330A00080000000028
:10002000000000000000000000000000B105000812
:1000300081020008000000007B0400089D06000803
:10004000E7010008E7010008E7010008E7010008F0
:10005000E7010008E7010008E7010008E7010008E0
:10006000E7010008E7010008E7010008E7010008D0
:10007000E7010008E7010008E7010008E7010008C0
:10008000E7010008E7010008E7010008E7010008B0
:10009000E7010008E7010008E7010008E7010008A0
:1000A000E7010008E7010008E7010008E701000890
:1000B000E7010008E7010008E7010008E701000880
:1000C000E7010008E7010008E7010008E701000870
:1000D000E701000801070008E7010008E701000840
:1000E000E7010008E7010008E7010008E701000850
:1000F000E7010008E7010008E7010008E701000840
:10010000E7010008E7010008E7010008E70100082F
:10011000E7010008E7010008E7010008E70100081F
:10012000E7010008E7010008E7010008E70100080F
:1001300000F002F800F03AF80AA090E8000C8244BF
:100140008344AAF10107DA4501D100F02FF8AFF29C
:10015000090EBAE80F0013F0010F18BFFB1A43F0A5
:1001600001031847D0090000F0090000103A24BF2D
:1001700078C878C1FAD8520724BF30C830C144BF0C
:1001800004680C607047000000230024002500264E
:10019000103A28BF78C1FBD8520728BF30C148BFEA
:1001A0000B6070471FB51FBD10B510BD00F033F8D0
:1001B0001146FFF7F7FF00F041FC00F051F803B4DF
:1001C000FFF7F2FF03BC00F036FC0000094880474F
:1001D00009480047FEE7FEE7FEE7FEE7FEE7FEE729
:1001E000FEE7FEE7FEE7FEE704480549054A064B41
:1001F00070470000A10600083101000878000020C7
:1002000078060020780200207802002070477047AE
:10021000704770477047754600F02CF8AE460500F1
:100220006946534620F00700854618B020B5FFF711
:10023000DBFFBDE820404FF000064FF000074FF015
:1002400000084FF0000B21F00701AC46ACE8C009F4
:10025000ACE8C009ACE8C009ACE8C0098D467047FD
:1002600010B50446AFF300802046BDE81040FFF70C
:10027000A6BF0000004870471400002000BFFEE742
:1002800070472DE9F041024600250026002000239A
:100290000024002791F803C00CF00F0591F803C06B
:1002A0000CF0100CBCF1000F03D091F802C04CEA26
:1002B000050591F800C0BCF1000F31D01468002092
:1002C0002BE04FF0010C0CFA00F3B1F800C00CEA7F
:1002D00003069E4220D183004FF00F0C0CFA03F767
:1002E000BC4305FA03FC4CEA040491F803C0BCF1DA
:1002F000280F06D14FF0010C0CFA00FCC2F814C014
:100300000AE091F803C0BCF1480F05D14FF0010C91
:100310000CFA00FCC2F810C0401C0828D1D31460AD
:10032000B1F800C0BCF1FF0F34DD546800202EE0AE
:1003300000F1080C4FF0010808FA0CF3B1F800C006
:100340000CEA03069E4221D183004FF00F0C0CFAF9
:1003500003F7BC4305FA03FC4CEA040491F803C01C
:10036000BCF1280F05D100F1080C08FA0CF8C2F80E
:10037000148091F803C0BCF1480F07D100F1080CBC
:100380004FF0010808FA0CF8C2F81080401C082849
:10039000CED35460BDE8F08100BFFEE708B501216F
:1003A000402000F07BF80121082000F077F82020A1
:1003B000ADF8000010208DF8030001208DF8020038
:1003C00069460548FFF75DFF2020ADF8000069464B
:1003D0000248FFF756FF08BD00180140000C01401D
:1003E00000BFFEE710B586B00446214800F002FACF
:1003F0000121042000F052F80121880300F04EF89A
:1004000018208DF807004FF40070ADF804000120AB
:100410008DF8060001A91748FFF733FF04208DF877
:1004200007000002ADF8040001A91248FFF729FFF8
:1004300002940020ADF814000C20ADF8120000204A
:10044000ADF810000120ADF80E000020ADF80C0052
:1004500002A9074800F078FA0121054800F0BEF92A
:10046000012240F22551024800F049FA06B010BDC1
:1004700000380140000801407047704729B1064A22
:1004800012690243044B1A6104E0034A1269824371
:10049000014B1A61704700000010024029B1064A62
:1004A00092690243044B9A6104E0034A92698243D1
:1004B000014B9A61704700000010024029B1064AC2
:1004C000D2680243044BDA6004E0034AD2688243F4
:1004D000014BDA60704700000010024030B5002187
:1004E0000022002400232D4D6D6805F00C0121B180
:1004F000042905D0082923D105E0294D056022E013
:10050000274D05601FE0254D6D6805F47012234DE1
:100510006D6805F48034022505EB92421CB9214D2B
:10052000554305600BE01D4D6D6805F400351DB1A8
:100530001C4D5543056002E0194D5543056002E02E
:10054000174D056000BF00BF144D6D6805F0F00148
:100550000909154D6B5C0568DD4045600F4D6D6800
:1005600005F4E061090A104D6B5C4568DD4085606B
:100570000A4D6D6805F46051C90A0B4D6B5C456806
:10058000DD40C560054D6D6805F44041890B074DA0
:100590006B5CC568B5FBF3F5056130BD001002402A
:1005A00000127A0000093D00000000201000002029
:1005B000704710B500F002F810BD00000CB5002027
:1005C000019000903348006840F480303149086061
:1005D00000BF3048006800F4003000900198401CD3
:1005E0000190009818B90198B0F5A06FF1D1294891
:1005F000006800F4003010B10120009001E00020FC
:1006000000900098012843D12348006840F0100072
:10061000214908600846006820F003000860084689
:10062000006840F0020008601A48406819494860B4
:100630000846406848600846406840F4806048606A
:100640000846406820F47C1048600846406840F442
:10065000E81048600846006840F08070086000BFFD
:100660000C48006800F000700028F9D00948406884
:1006700020F00300074948600846406840F0020047
:10068000486000BF0348406800F00C000828F9D11A
:100690000CBD000000100240002002407047000026
:1006A00010B51348006840F0010011490860084681
:1006B0004068104908400E494860084600680E49E5
:1006C00008400B4908600846006820F48020086054
:1006D0000846406820F4FE0048604FF41F00886020
:1006E000FFF767FF4FF000600449086010BD00008D
:1006F000001002400000FFF8FFFFF6FE08ED00E0EA
:1007000010B540F22551074800F0CFF8012807D175
:10071000044800F085F904462146024800F085F9B6
:1007200010BD0000003801402DE9F04107460C469D
:100730001546002600BF0DE014F8011B384600F0F6
:1007400074F900BF8021384600F0A2F80128F9D1E1
:10075000701CC6B2AE42EFDBBDE8F08170B5044656
:100760000D462946204600F060F900BF8021204652
:1007700000F08EF80128F9D170BD70B505460C4621
:10078000260A3146284600F050F900BF802128464D
:1007900000F07EF80128F9D12146284600F045F9FD
:1007A00000BF8021284600F073F80128F9D170BD00
:1007B00070B506460C46002500BF615D304600F06E
:1007C00034F900BF8021304600F062F80128F9D1E9
:1007D000681CC5B2605D0028EFD170BD21B182896F
:1007E00042F40052828104E082894DF6FF731A4080
:1007F0008281704710B504462048844209D1012106
:100800008803FFF75BFE00214FF48040FFF756FEA0
:1008100032E01B48844209D101214804FFF72EFE33
:1008200000214FF40030FFF729FE25E015488442EF
:1008300009D101218804FFF721FE00214FF4802017
:10084000FFF71CFE18E01048844209D10121C804BA
:10085000FFF714FE00214FF40020FFF70FFE0BE01E
:100860000A48844208D101210805FFF707FE00214C
:100870004FF48010FFF702FE10BD00000038014069
:100880000044004000480040004C00400050004040
:1008900002460020B1F5007F00D100BF13880B4055
:1008A0000BB1012000E00020704770B50246002423
:1008B00000230025002040F66A16B14200D100BF97
:1008C000C1F3421501F01F03012606FA03F3012DBF
:1008D00002D19689334006E0022D02D1168A3340B8
:1008E00001E0968A33400C12012606FA04F41688B9
:1008F000344013B10CB1012000E0002070BDF0B510
:100900000346002400260025002040F66A17B9425D
:1009100000D100BF1846C1F3421401F01F060127A1
:1009200007FA06F5012C01D10C3004E0022C01D1AC
:10093000103000E014301AB107682F43076002E05E
:100940000768AF430760F0BD2DE9F04786B0054664
:100950000E460024A24600BFA1460027B08900B180
:1009600000BF2F462C8A4CF6FF700440F0880443E9
:100970002C82AC894EF6F3100440B08831890843CC
:10098000718908430443AC81AC8A4FF6FF400440B0
:10099000B0890443AC8201A8FFF7A0FD1F4887423D
:1009A00002D1DDF810A001E0DDF80CA0A88900F468
:1009B000004040B10AEBCA0000EB0A103168490060
:1009C000B0FBF1F807E00AEBCA0000EB0A1031684F
:1009D0008900B0FBF1F86420B8FBF0F004012009B5
:1009E000642101FB1089A88900F4004040B1322045
:1009F00000EBC900B0FBF1F000F00700044308E091
:100A0000322000EB09106421B0FBF1F000F00F0080
:100A100004432C8106B0BDE8F08700000038014097
:100A200001468888C0F308007047C1F3080282803D
:100A3000704700BFFEE700BF7047000086B02DA1E1
:100A400003C9CDE904012DA30FCB8DE80F004FF4AE
:100A5000E130FFF7C7FCFFF7A1FC64212B48FFF74B
:100A60007DFE61212948FFF788FE062204A9274858
:100A7000FFF75AFE69462548FFF79AFE24A123484E
:100A8000FFF796FE35E020212048FFF701FF0128FF
:100A90002FD11E48FFF7C4FFC4B2012C04D0022C92
:100AA0000BD0032C17D111E01B48006808B90120B6
:100AB00000E00020184908601AE01848006808B9EA
:100AC000012000E000201549086011E014A10F4842
:100AD000FFF76EFE0CE015A10C48FFF769FE0F480A
:100AE000006808B9012000E000200C49086000BF40
:100AF00000BFC8E761646769616E0000B0A2C8F812
:100B0000B6A5B0A2C8F8B6A50000000000380140A4
:100B1000BFAAC6F400000000940123429481214240
:100B2000B5CEB5CE6161A3A100000000B5CEB5CEB3
:100B3000A3A10000540B00080000002014000000D6
:100B40006C010008680B0008140000206406000017
:100B500088010008000000000102030401020304F0
:080B600006070809020406085B
:0400000508000131BD
:00000001FF
