:020000040800F2
:1000000058070020CD010008DD0400089D04000809
:10001000D90400087D02000857070008000000000E
:1000200000000000000000000000000021050008A2
:100030008503000800000000DF0400080D0600082A
:10004000E7010008E7010008E7010008E7010008F0
:10005000E7010008E7010008E7010008E7010008E0
:10006000E7010008E7010008E7010008E7010008D0
:10007000E7010008E7010008E7010008E7010008C0
:10008000E7010008E7010008E7010008E7010008B0
:10009000E7010008E7010008E7010008E7010008A0
:1000A000E7010008E7010008E7010008E701000890
:1000B000E7010008E7010008E7010008E701000880
:1000C000E7010008E7010008E7010008E701000870
:1000D000E701000871060008E7010008E7010008D1
:1000E000E7010008E7010008E7010008E701000850
:1000F000E7010008E7010008E7010008E701000840
:10010000E7010008E7010008E7010008E70100082F
:10011000E7010008E7010008E7010008E70100081F
:10012000E7010008E7010008E7010008E70100080F
:1001300000F002F800F03AF80AA090E8000C8244BF
:100140008344AAF10107DA4501D100F02FF8AFF29C
:10015000090EBAE80F0013F0010F18BFFB1A43F0A5
:100160000103184790060000B0060000103A24BFB3
:1001700078C878C1FAD8520724BF30C830C144BF0C
:1001800004680C607047000000230024002500264E
:10019000103A28BF78C1FBD8520728BF30C148BFEA
:1001A0000B6070471FB51FBD10B510BD00F033F8D0
:1001B0001146FFF7F7FF00F0E7FA00F051F803B43B
:1001C000FFF7F2FF03BC00F0C8FA000009488047BF
:1001D00009480047FEE7FEE7FEE7FEE7FEE7FEE729
:1001E000FEE7FEE7FEE7FEE704480549054A064B41
:1001F0007047000011060008310100085801002076
:10020000580700205803002058030020704770470B
:10021000704770477047754600F02CF8AE460500F1
:100220006946534620F00700854618B020B5FFF711
:10023000DBFFBDE820404FF000064FF000074FF015
:1002400000084FF0000B21F00701AC46ACE8C009F4
:10025000ACE8C009ACE8C009ACE8C0098D467047FD
:1002600010B50446AFF300802046BDE81040FFF70C
:10027000A6BF000000487047F400002000BFFEE762
:1002800000F0805111B10349086001E00249486063
:1002900070470000040402400000024021B10268DF
:1002A00042F00102026004E002684FF6FE731A4059
:1002B0000260704701460020002201F0805313B114
:1002C000054B1A6801E0054B1A6802EA01030BB1FD
:1002D000012000E0002070470004024000000240BE
:1002E00010B50022026847F6F0739A430C6A8B68D7
:1002F00023430C6923434C6923438C692343CC6912
:1003000023434C6A23438C6A23431A430260CB681D
:1003100043600B6883604B68C36010BD00B58BB051
:100320000121084600F0DCF8202003900020029014
:100330004FF480400A90104801904FF400600790FD
:1003400080200590002008900C4800904FF4007029
:10035000069040200490C001099069460848FFF7C4
:10036000BFFF4FF40010FFF78BFF01210448FFF798
:1003700095FF0BB000BD0000D0000020D0070008A2
:100380006C00024070472DE9F0410246002500262E
:10039000002000230024002791F803C00CF00F0573
:1003A00091F803C00CF0100CBCF1000F03D091F8D1
:1003B00002C04CEA050591F800C0BCF1000F31D035
:1003C000146800202BE04FF0010C0CFA00F3B1F898
:1003D00000C00CEA03069E4220D183004FF00F0CB0
:1003E0000CFA03F7BC4305FA03FC4CEA040491F849
:1003F00003C0BCF1280F06D14FF0010C0CFA00FC31
:10040000C2F814C00AE091F803C0BCF1480F05D14E
:100410004FF0010C0CFA00FCC2F810C0401C082878
:10042000D1D31460B1F800C0BCF1FF0F34DD5468C3
:1004300000202EE000F1080C4FF0010808FA0CF340
:10044000B1F800C00CEA03069E4221D183004FF0B0
:100450000F0C0CFA03F7BC4305FA03FC4CEA040446
:1004600091F803C0BCF1280F05D100F1080C08FA7F
:100470000CF8C2F8148091F803C0BCF1480F07D102
:1004800000F1080C4FF0010808FA0CF8C2F81080CF
:10049000401C0828CED35460BDE8F08100BFFEE7C1
:1004A00008B50121482000F02BF82020ADF800000D
:1004B00010208DF8030001208DF8020069460448E1
:1004C000FFF761FF69460348FFF75DFF08BD0000C5
:1004D00000180140000C014000BFFEE77047704764
:1004E00029B1064A52690243044B5A6104E0034AA7
:1004F00052698243014B5A6170470000001002406C
:1005000029B1064A92690243044B9A6104E0034A06
:1005100092698243014B9A617047000000100240CB
:10052000704710B500F002F810BD00000CB50020B7
:10053000019000903348006840F4803031490860F1
:1005400000BF3048006800F4003000900198401C63
:100550000190009818B90198B0F5A06FF1D1294821
:10056000006800F4003010B10120009001E000208C
:1005700000900098012843D12348006840F0100003
:10058000214908600846006820F00300086008461A
:10059000006840F0020008601A4840681949486045
:1005A0000846406848600846406840F480604860FB
:1005B0000846406820F47C1048600846406840F4D3
:1005C000E81048600846006840F08070086000BF8E
:1005D0000C48006800F000700028F9D00948406815
:1005E00020F00300074948600846406840F00200D8
:1005F000486000BF0348406800F00C000828F9D1AB
:100600000CBD0000001002400020024070470000B6
:1006100010B51348006840F0010011490860084611
:100620004068104908400E494860084600680E4975
:1006300008400B4908600846006820F480200860E4
:100640000846406820F4FE0048604FF41F008860B0
:10065000FFF767FF4FF000600449086010BD00001D
:10066000001002400000FFF8FFFFF6FE08ED00E07A
:1006700010B540F225511D4800F03EF810B31B485C
:1006800000F064F8C4B21A48008800F40040C8B909
:100690001748008800F4804060B10A2C03D0002085
:1006A0001349088020E01248008840F400401049B7
:1006B000088019E00D2C06D10D48008840F48040D8
:1006C0000B49088010E00A480088C0F30D00094972
:1006D0000C5407480088401C0549088008460088DB
:1006E000C72801DD0020088010BD0000003801404F
:1006F000040000200800002070B5024600240023FA
:100700000025002040F66A16B14200D100BFC1F3B7
:10071000421501F01F03012606FA03F3012D02D151
:100720009689334006E0022D02D1168A334001E05B
:10073000968A33400C12012606FA04F416883440D7
:1007400013B10CB1012000E0002070BD0146888883
:10075000C0F30800704700BFFEE700BF704710B548
:1007600003460DE003EB820050F8040C01EB820419
:1007700054F8044CA04201D0002010BD501EC2B25B
:10078000002AEFDC0120F8E7FFF78AFE01200D497F
:100790000860FFF7C3FD00BF4FF40010FFF78AFDAC
:1007A0000028F9D0202208490848FFF7D8FF01287F
:1007B00003D100200349086002E0012001490860DC
:1007C00000BFFEE794012342D0000020D0070008BC
:1007D00004030201080706050C0B0A09100F0E0D91
:1007E00014131211181716151C1B1A19201F1E1D81
:1007F0002423222114080008000000200800000023
:100800006C0100081C0800080800002050070000C8
:0C0810008801000800000000000000004B
:0400000508000131BD
:00000001FF
