:10000E001204041204748F12E51075F00A84FD7F39
:10001E0001120003E51075F00A84ADF07F021200A4
:10002E0003E50F75F00A84FD7F04120003E50F75DA
:10003E00F00A84ADF07F05120003E50E75F00A8418
:10004E00FD7F07120003E50E75F00A84ADF07F0800
:10005E00120003E512B4010CE51170047F01800259
:10006E007F008F11E512B40207E4F510F50FF50EBF
:10007E00E5126403704BE51075F00A84FD7F0112E2
:10008E00035DE51075F00A84ADF07F0212035DE5A5
:10009E000F75F00A84FD7F0312035DE50F75F00AFC
:1000AE0084ADF07F0412035DE50E75F00A84FD7FCA
:1000BE000512035DE50E75F00A84ADF07F0612039E
:1000CE005DE512640460030200117F011203027FDA
:1000DE00021203027F031203027F041203027F0542
:0B00EE001203027F0612030202001141
:1003AA00E50ED39463401BE4F50E050FE50FD394D5
:1003BA003B400FE4F50F0510E510D394634003E4C6
:0303CA00F5102209
:03000B000200F9F7
:1000F900C0E0C0F0C083C082C0D075D000C000C0CD
:0D01090001C002C003C004C005C006C0074D
:10011600758A66758CFC0509E50970020508D39495
:1001260014E50894004009120217750800750900C5
:10013600050BE50B7002050AD39401E50A9400400D
:1001460009750A00750B001203CDE511701C050D2B
:10015600E50D7002050CD39409E50C9400400B756F
:0A0166000C00750D00050E1203AA2F
:10017000D007D006D005D004D003D002D001D000E3
:0B018000D0D0D082D083D0F0D0E0328D
:0A03EA00EF1FAC0670011E4C600FFF
:0D03F40000751F027520C7D520FDD51FFA2A
:0304010080E7226F
:10041B00E4FF20B1010F20B0027F0220B2027F0364
:05042B0020B3027F0474
:0104300022A9
:1002170085212212041B8F21E52170047F018002B2
:100227007F00E522B401047E0180027E00EE5F605C
:1002370003752301E52170047F0180027F00E52219
:10024700B402047E0180027E00EE5F600375230224
:10025700E52170047F0180027F00E522B403047E5C
:100267000180027E00EE5F6003752303E5217004C1
:100277007F0180027F00E522B404047E0180027EB4
:0A02870000EE5F6003752304AF234F
:01029100224A
:05047400E4AF23F523B5
:010479002260
:100431003F065B4F666D7D077F6F777C395E797113
:01044100407A
:0B04420009140001021002031005095C
:10029200E4F580EE705BEF14B4080050549002ADA8
:1002A20075F003A4C58325F0C583730202ED020233
:1002B200E90202E10202DD0202D50202D10202C912
:1002C2000202C5C2A28002D2A2C2A3C2A48022C2DA
:1002D200A28002D2A2D2A3C2A48016C2A28002D25B
:1002E200A2C2A3D2A4800AC2A28002D2A2D2A3D264
:1002F200A474312DF58274043CF583E493F58022D5
:1003CD00AF137E0074142513F8E6FD7C0012029223
:0C03DD000513E513D394084003751301C9
:0103E90022F1
:0700030074142FF8A605227A
:100404005389F0438901758A66758CFCC28DD28C40
:07041400D2A9D2AFC2B92248
:10035D008F1D8D1E1204647FA012033212044EAF46
:10036D001D12033212044EAF1E12033212044E122E
:09037D00046D7F057E000203EA15
:020302008F1D4D
:100304001204647FA012033212044EAF1D12033292
:1003140012044E1204647FA112033212044E12031B
:0D032400868F1E7F0112045A12046DAF1E59
:0103310022A9
:09046400D2A0D2A1C2A0C2A122C3
:07046D00C2A0D2A1D2A0221F
:10033200AD07E4F52474807E00A824088006CEA2CE
:10034200E713CE13D8F8FFEDFBEF5B24FF92A0D2A8
:0B035200A1C2A10524E524B408DB22B1
:10038600E4FFD2A0F524D2A130A00FAE247480A839
:1003960006088002C313D8FC4207C2A10524E5243F
:0303A600B408E3B5
:0103A9002231
:0A045A00EF24FF92A0D2A1C2A1225C
:0B044E00D2A0D2A1A2A0E433FFC2A103
:010459002280
:0300000002018B6F
:0C018B00787FE4F6D8FD7581240201D2D3
:1001970002000EE493A3F8E493A34003F68001F270
:1001A70008DFF48029E493A3F85407240CC8C33369
:1001B700C4540F4420C8834004F456800146F6DF38
:1001C700E4800B0102040810204080900442E47E82
:1001D700019360BCA3FF543F30E509541FFEE4932D
:1001E700A360010ECF54C025E060A840B8E493A3F4
:1001F700FAE493A3F8E493A3C8C582C8CAC583CA1F
:10020700F0A3C8C582C8CAC583CADFE9DEE780BED6
:01044D0000AE
:00000001FF
