:020000040800F2
:10000000800800202D020008AD110008470C0008F0
:10001000A911000829070008FF17000800000000C8
:10002000000000000000000000000000F1130008C4
:100030002D07000800000000211200080515000827
:10004000470200084702000847020008470200086C
:10005000470200084702000847020008470200085C
:10006000470200084702000847020008470200084C
:10007000470200084702000847020008470200083C
:10008000470200084702000847020008470200082C
:10009000470200084702000847020008470200081C
:1000A000470200084702000847020008470200080C
:1000B00047020008470200086915000847020008C7
:1000C00047020008470200084702000847020008EC
:1000D00047020008191700084702000847020008F5
:1000E00047020008470200084702000847020008CC
:1000F00047020008470200084702000847020008BC
:1001000047020008470200084702000847020008AB
:10011000470200084702000847020008470200089B
:10012000470200084702000847020008470200088B
:1001300000F002F800F06BF80AA090E8000C82448E
:100140008344AAF10107DA4501D100F060F8AFF26B
:10015000090EBAE80F0013F0010F18BFFB1A43F0A5
:100160000103184730300000503000000A444FF0BF
:10017000000C10F8013B13F0070408BF10F8014B06
:100180001D1108BF10F8015B641E05D010F8016B4B
:10019000641E01F8016BF9D113F0080F1EBF10F8AF
:1001A000014BAD1C0C1B09D16D1E58BF01F801CBD2
:1001B000FAD505E014F8016B01F8016B6D1EF9D555
:1001C0009142D6D37047000000230024002500266A
:1001D000103A28BF78C1FBD8520728BF30C148BFAA
:1001E0000B607047642900F09F80752900F09C80A7
:1001F000782900F0D580632900F02982732900F066
:100200002E82002070471FB51FBD10B510BD00F035
:1002100059FA1146FFF7F7FF01F052FB00F077FAA9
:1002200003B4FFF7F2FF03BC01F0F2FA094880477C
:1002300009480047FEE7FEE7FEE7FEE7FEE7FEE7C8
:10024000FEE7FEE7FEE7FEE704480549054A064BE0
:1002500070470000091500083101000880020020E5
:1002600080080020800400208004002070470000E7
:100270000FB4044910B503AA029800F0F5F910BCB8
:100280005DF814FB1400002070B504468569006811
:10029000C10601D5302600E02026C00707D070BD7A
:1002A000D4E9012130469047206A401C20626D1E2F
:1002B000F6D570BD70B5044685690078C00707D1D2
:1002C00070BDD4E9012120209047206A401C2062A3
:1002D0006D1EF6D570BD70B50C460546012A05D0D9
:1002E0002878800600D5EA69002302E0012305E0B2
:1002F0005B1C934202D2E05C0028F9D1A869E618A1
:10030000C01AA861286A184428622846FFF7BCFF73
:1003100004E0D5E9012114F8010B9047B442F8D369
:100320002846FFF7C7FF70BD2DE9F04106460024BF
:1003300010687529314616A510D0AFF3008000284B
:1003400002DA404213A507E031688A0701D512A5F9
:1003500002E0490704D511A5012401E0AFF30080B4
:1003600000210A2206F1240709E0B0FBF2FCB0FBF1
:10037000F2F302FB1C00303078541846491C002868
:10038000F3D123462A463046BDE8F04100F0FCB8E0
:10039000000000002D0000002B00000020000000E5
:1003A00070B504460D4621461068AFF300802188E1
:1003B000090502D50F4A7A4402E00E4A7A440E3209
:1003C000002104F1240305E000F00F060009965D0A
:1003D0005E54491C0028F7D120780023000704D57B
:1003E000702D02D009B1022311322046BDE87040C1
:1003F00000F0CAB8B62C00002DE9F05F894604462B
:100400004FF0000ADFF874B1FB44C0F820A020468A
:10041000E1688847002874D0252806D0D4E9012156
:100420009047206A401C2062F1E700265F46204684
:10043000E16888472028054607DB312D05D2781969
:1004400010F8200C08B10643F1E7B00701D526F0FB
:100450000406C4F81CA00027C4F818A02A2D09D04F
:10046000284601F0CEF938B304EB8708303DC8F8D0
:10047000185019E059F8041B204604EB87029161DB
:10048000E1688847012F054618D1E069002820DA85
:1004900026F020061DE0D8F8180000EB800005EBE0
:1004A00040003038C8F818002046E1688847054603
:1004B00001F0A7F90028EED1012F0AD02E2D08D186
:1004C0002046E16888477F1C0546022F46F020063B
:1004D000C4DBA069002803DA404246F00106A061AF
:1004E000F00701D026F010066C2D0BD0682D09D036
:1004F0004C2D39D06A2D35D0742D35D07A2D33D08E
:1005000016E038E0E1682F4620468847B8420546A5
:1005100009D16C2F26D04FF48060E1680643204655
:100520008847054604E06C2F1AD04FF480700643CC
:100530000DB3A5F14100192802D8203546F4006614
:100540004A462946204626604E46FFF74BFE80B1BC
:1005500001280BD0F61D26F0070000F1080956E728
:100560004020E4E78020D8E70020D6E706F1040920
:100570004DE7284652E7206ABDE8F09F8C2C00002A
:1005800070477047704770472DE9F0470D46994610
:100590009246044600F124080168880604D5E06903
:1005A00021F01001216000E00120A84201DD471B7D
:1005B00000E00027A1697A1902EB0900081AA0617E
:1005C0002078C00602D42046FFF75EFE002608E031
:1005D000D4E901211AF806009047206A401C761CD5
:1005E00020624E45F4DB2078C0060AD52046FFF78E
:1005F0004BFE06E0D4E9012130209047206A401CE0
:100600002062381EA7F10107F4DC07E0D4E90121DC
:1006100018F805009047206A401C2062281EA5F1AA
:100620000105F3DC2046FFF745FE2078000602D5E1
:100630000220BDE8F0870120FBE710B5436913B144
:10064000AFF3008001E0FFF746FE012010BD1278F5
:1006500000F124010A7000224A700122EDE71168BE
:100660004FF0FF32E9E70000074B70B50D467B44C1
:1006700000F011F80446284600F020F810B14FF0C1
:10068000FF3070BD204670BD3312000001694A1C66
:1006900002610878704700B58FB0CDE901310021C3
:1006A000059105497944CDE9031011466846FFF7E5
:1006B000A3FE0FB000BD0000E5FFFFFF007B00F0D0
:1006C00080007047754600F02BF8AE46050069467D
:1006D000534620F00700854618B020B5FFF7B4FD5B
:1006E000BDE820404FF000064FF000074FF0000833
:1006F0004FF0000B21F00701AC46ACE8C009ACE8B4
:10070000C009ACE8C009ACE8C0098D46704710B517
:100710000446AFF300802046BDE81040FFF780BDDF
:10072000004870471C02002000BFFEE7704770B50C
:1007300005460E4614463146284600F029FC2C207A
:1007400000F028FD204600F029FD70BD08B501210C
:10075000082000F087FD10208DF803000002ADF89E
:10076000000003208DF802006946034800F0DCF920
:1007700000F088FD08BD0000000C01402DE9F041AB
:1007800004460D46164600F027F84FF480511148F4
:1007900000F055FA032000F0FFFDC4F3074000F01D
:1007A000FBFDC4F3072000F0F7FDE0B200F0F4FD1C
:1007B000002706E0FF2000F0EFFD28706D1C781C7C
:1007C00087B2B742F6DB4FF48051024800F039FAA5
:1007D000BDE8F081000C014010B500244FF48051B9
:1007E0000A4800F02CFA052000F0D6FD00BFFF20DB
:1007F00000F0D2FD044604F001000028F7D14FF4C8
:100800008051024800F01DFA10BD0000000C0140AC
:1008100000B59DB00121080200F004FD00200D90FC
:1008200008900120079000200A900B900C900F2058
:10083000099000200690019000900390049005908C
:10084000032002900020139006200E9000201290AA
:100850000F904FF4804019901020119000201090BC
:1008600007A81B90002018901690149015901A90CD
:100870004FF480501790CDF870D00EA800F024F8F7
:100880000121062000F006F8322000F0E5FF1DB03F
:1008900000BD000051B18200A2F1C042126842F0D6
:1008A00001038200A2F1C042136009E08200A2F1BC
:1008B000C0421268034B1A408300A3F1C0431A6080
:1008C00070470000FEFF0F00D0E901121143C2681B
:1008D0001143026911434269114382691143C2699C
:1008E0001143026A1143426A1143826A1143C26A88
:1008F0001143026B114302689200A2F1C0421160E1
:10090000816808290BD101688900A1F1C0410968FB
:1009100041F0400201688900A1F1C0410A60416BC9
:100920000968426B526841EA0211426B926841EADF
:100930000221426B928941EA0241426B128A41EAEA
:100940000251426B127D41EA0261426B926911438E
:100950000268521C9200A2F1C0421160C16AB1F556
:10096000804F1BD1816B0968826B526841EA02118A
:10097000826B926841EA0221826B128A41EA02513B
:10098000826B127D41EA0261826B926911430268B7
:100990009200A2F1C042C2F8041107E06FF0704269
:1009A00001688900A1F1C041C1F80421704700002D
:1009B00008B501214FF4B47000F054FC18208DF8F4
:1009C000030003208DF802004FF48050ADF80000C2
:1009D0006946514800F0A8F81020ADF800006946BB
:1009E0004E4800F0A1F82020ADF8000069464B48C1
:1009F00000F09AF80120ADF800006946464800F082
:100A000093F84FF48040ADF800006946434800F089
:100A10008BF84FF40040ADF8000069463F4800F005
:100A200083F80120ADF8000069463C4800F07CF8EE
:100A30000220ADF800006946384800F075F88020C3
:100A4000ADF800006946364800F06EF84FF480704B
:100A5000ADF800006946324800F066F84FF40070C7
:100A6000ADF8000069462E4800F05EF84FF4806053
:100A7000ADF8000069462A4800F056F84FF40060CF
:100A8000ADF800006946264800F04EF84FF480505B
:100A9000ADF800006946224800F046F84FF40050D7
:100AA000ADF8000069461E4800F03EF84FF4804063
:100AB000ADF8000069461A4800F036F84FF40040DF
:100AC000ADF800006946164800F02EF84FF480702B
:100AD000ADF800006946114800F026F84FF40070A8
:100AE000ADF8000069460D4800F01EF84FF4806034
:100AF000ADF800006946094800F016F810208DF89E
:100B0000030003208DF802000120ADF800006946C3
:100B1000044800F009F808BD00200140001401401D
:100B200000180140000C01402DE9F041024600256B
:100B30000026002000230024002791F803C00CF0B9
:100B40000F0591F803C00CF0100CBCF1000F03D09E
:100B500091F802C04CEA050591F800C0BCF1000F05
:100B600031D0146800202BE04FF0010C0CFA00F398
:100B7000B1F800C00CEA03069E4220D183004FF07A
:100B80000F0C0CFA03F7BC4305FA03FC4CEA04040F
:100B900091F803C0BCF1280F06D14FF0010C0CFAFC
:100BA00000FCC2F814C00AE091F803C0BCF1480F81
:100BB00005D14FF0010C0CFA00FCC2F810C0401C2B
:100BC0000828D1D31460B1F800C0BCF1FF0F34DDA8
:100BD000546800202EE000F1080C4FF0010808FADC
:100BE0000CF3B1F800C00CEA03069E4221D1830049
:100BF0004FF00F0C0CFA03F7BC4305FA03FC4CEA68
:100C0000040491F803C0BCF1280F05D100F1080CD1
:100C100008FA0CF8C2F8148091F803C0BCF1480F30
:100C200007D100F1080C4FF0010808FA0CF8C2F8DF
:100C30001080401C0828CED35460BDE8F08141618B
:100C400070470161704700BFFEE7000010B5044621
:100C500024B101210448FFF7F4FF03E00121024819
:100C6000FFF7EDFF10BD0000000C014010B5112092
:100C700000F090FA782000F0EFFD362000F08AFABC
:100C8000002000F08BFA3A2000F084FA052000F0F2
:100C900085FAB22000F07EFA0C2000F07FFA0C20DA
:100CA00000F07CFA002000F079FA332000F076FAA8
:100CB000332000F073FAB72000F06CFA352000F012
:100CC0006DFABB2000F066FA322000F067FAC0200F
:100CD00000F060FA0C2000F061FAC22000F05AFA2D
:100CE000012000F05BFAC32000F054FA102000F05D
:100CF00055FAC42000F04EFA202000F04FFAC6202A
:100D000000F048FA0F2000F049FAD02000F042FA33
:100D1000A42000F043FAA12000F040FAE02000F007
:100D200039FAD02000F03AFA002000F037FA022019
:100D300000F034FA072000F031FA0A2000F02EFA11
:100D4000282000F02BFA322000F028FA442000F08E
:100D500025FA422000F022FA062000F01FFA0E20A9
:100D600000F01CFA122000F019FA142000F016FA14
:100D7000172000F013FAE12000F00CFAD02000F068
:100D80000DFA002000F00AFA022000F007FA07200E
:100D900000F004FA0A2000F001FA282000F0FEF921
:100DA000312000F0FBF9542000F0F8F9472000F062
:100DB000F5F90E2000F0F2F91C2000F0EFF91720F1
:100DC00000F0ECF91B2000F0E9F91E2000F0E6F934
:100DD0002A2000F0DFF9002000F0E0F9002000F008
:100DE000DDF9002000F0DAF9EF2000F0D7F92B2030
:100DF00000F0D0F9002000F0D1F9002000F0CEF989
:100E0000012000F0CBF93F2000F0C8F9292000F0C4
:100E1000C1F910BD2DE9FF4F85B0074688464FF058
:100E20000009CA46BB46CDF810800798C01B05B222
:100E30000898A0EB080006B2002D02DD0120039007
:100E400004E04FF0FF300390684205B2002E02DD4F
:100E50000120029004E04FF0FF300290704206B291
:100E6000B54201DD2C4600E034460020019025E02B
:100E70005846129A0499FFF75AFC09EB05001FFA2D
:100E800080F90AEB06001FFA80FAA14507DBA9EBFF
:100E900004001FFA80F9039858441FFA80FBA2450A
:100EA00008DBAAEB04001FFA80FA029904980844B0
:100EB00080B204900198401C00B20190611C01981E
:100EC0008842D5DB09B0BDE8F08F2DE9F047074631
:100ED000884614461D46DDF820902B4622464146A2
:100EE000384600F025F82C2000F054F9002603E0E5
:100EF000484600F053F9761C04FB05F0B042F7D8E1
:100F0000BDE8F08708B5FFF753FDFFF781FC3220FD
:100F100000F0A2FCFFF7AAFE0120FFF797FE0020D9
:100F20004FF4A073F02201460090FFF7CEFF08BDFA
:100F30002DE9F04104460D4616461F462A2000F0D2
:100F400029F9201200F02AF9E0B200F027F9A119DE
:100F5000491EC1F3072000F021F9A119491E88B2EA
:100F600000F01CF92B2000F015F9281200F016F9FA
:100F7000E8B200F013F9E919491EC1F3072000F0A7
:100F80000DF9E919491E88B200F008F9BDE8F081B1
:100F900070B505460C462A2000F0FCF8280A00F03F
:100FA000FDF8284600F0FAF82B2000F0F3F8200AAC
:100FB00000F0F4F8204600F0F1F870BD2DE9F04F94
:100FC00089B08046894616461F4600BF06F0FF0AD4
:100FD0004FEA162BAAF1A100ABF1A101C1EB01125E
:100FE00002EB411100EB41004001089020226946CC
:100FF0000898FFF7C3FB10231A4649464046FFF7FF
:1010000097FF2C2000F0C6F800242AE000250EE00F
:10101000802028411DF81410084018B1384600F00F
:10102000BDF802E0129800F0B9F8681CC5B2082DAE
:10103000EEDB002511E080202841012101EB440175
:101040001DF80110084018B1384600F0A7F802E07A
:10105000129800F0A3F8681CC5B2082DEBDB601CE9
:10106000C4B2102CD2DB09B0BDE8F08F2DE9F05FDF
:1010700081468A4616461F46A6F1200000F0FF0B67
:101080001949C988184A928801FB02F0C11700EB80
:101090005171C1F3C7081448C38882885146484635
:1010A000FFF746FF2C2000F075F8002417E000251C
:1010B00011E00D4800680BFB0800015D802028410D
:1010C000014019B1384600F069F802E00A9800F0D2
:1010D00065F8681CC5B2082DEBDB601CC4B2444542
:1010E000E5DBBDE8F09F00004C0100202DE9F8434E
:1010F00005460E4614469946DDF8208000273FE05D
:1011000000272078802816DA05F108001F49098891
:10111000884203DD06F1100086B20025CDF800807C
:1011200022784B4631462846FFF7A0FF641C05F1A4
:10113000080085B21DE005F11000144909888842B5
:1011400003DD06F1100086B20025207807434FF634
:10115000FF7000EA072760780743A41C4B463A4615
:1011600031462846CDF80080FFF728FF05F1100032
:1011700085B206F1100006490988884200DD002684
:1011800020780028BCD1BDE8F88300001E000020B4
:10119000200000204FF0D8410880704701490880A6
:1011A000704700000008006C00BFFEE770470000B9
:1011B00070B5002100230F22C47804B3154C2468B5
:1011C00004F4E064C4F5E064210AC1F10403CA40F8
:1011D000447804FA03F184781440214309010E4C49
:1011E0000678A155047804F01F050124AC40057869
:1011F0006D11AD0005F1E025C5F8004109E0047866
:1012000004F01F050124AC40044D0678761145F822
:10121000264070BD0CED00E000E400E080E100E05D
:101220007047000029B1064A52690243044B5A61D3
:1012300004E0034A52698243014B5A61704700003F
:101240000010024029B1064AD2690243044BDA6118
:1012500004E0034AD2698243014BDA61704700001F
:101260000010024029B1064A92690243044B9A6178
:1012700004E0034A92698243014B9A61704700007F
:101280000010024000B587B001210820FFF7EAFFF7
:1012900001218803FFF7D6FF18208DF807000320EF
:1012A0008DF806004FF40050ADF8040001A91C4869
:1012B000FFF73AFC4FF48040ADF8040001A918484C
:1012C000FFF732FC4FF40040ADF8040001A91448C8
:1012D000FFF72AFC0020ADF814000120ADF8100043
:1012E0000220ADF80E000720ADF818000020ADF880
:1012F0000C00ADF80800ADF816004FF48270ADF8A0
:101300000A004FF40070ADF812000121054800F00A
:101310000BF802A9034800F021F807B000BD000057
:10132000000C01400038004021B1028842F0400228
:10133000028004E002884FF6BF731A4002807047B3
:101340000246002013890B400BB1012000E0002071
:1013500070470146888970478181704710B5002227
:10136000028802F441520B884C8823438C88234323
:10137000CC8823430C8923434C8923438C89234302
:10138000CC8923431A430280838B4FF2FF7423409E
:1013900083830B8A038210BD70B504464FF6FF7538
:1013A00005E0281EA5F101018DB200D170BD02211A
:1013B0000E48FFF7C5FF0028F3D021460B48FFF782
:1013C000CBFF4FF6FF7505E0281EA5F101018DB298
:1013D00000D1EBE701210548FFF7B2FF0028F3D069
:1013E0000248FFF7B6FFC0B2E0E700000038004057
:1013F000704710B500F002F810BD00000CB50020D9
:10140000019000903348006840F480303149086012
:1014100000BF3048006800F4003000900198401C84
:101420000190009818B90198B0F5A06FF1D1294842
:10143000006800F4003010B10120009001E00020AD
:1014400000900098012843D12348006840F0100024
:10145000214908600846006820F00300086008463B
:10146000006840F0020008601A4840681949486066
:101470000846406848600846406840F4806048601C
:101480000846406820F47C1048600846406840F4F4
:10149000E81048600846006840F08070086000BFAF
:1014A0000C48006800F000700028F9D00948406836
:1014B00020F00300074948600846406840F00200F9
:1014C000486000BF0348406800F00C000828F9D1CC
:1014D0000CBD00000010024000200240042808D18A
:1014E0004FF0E021096941F004014FF0E022116161
:1014F00007E04FF0E021096921F004014FF0E022FC
:10150000116170477047000010B51348006840F043
:1015100001001149086008464068104908400E491A
:101520004860084600680E4908400B4908600846B4
:10153000006820F4802008600846406820F4FE001F
:1015400048604FF41F008860FFF753FF4FF00060C2
:101550000449086010BD0000001002400000FFF8C0
:10156000FFFFF6FE08ED00E010B501210A4800F08B
:1015700035F801280AD10949086980470021064841
:1015800000F048F86421044800F042F801210248C4
:1015900000F009F810BD0000000800403C000020E9
:1015A000CA4302827047CA430282704721B102884F
:1015B00042F00102028004E002884FF6FE731A40F6
:1015C000028070470146888C704702460020138ACB
:1015D0000B400BB1012000E00020704730B50246FF
:1015E000002000230024158A05EA0103958905EAF5
:1015F000010413B10CB1012000E0002030BD1AB18C
:1016000083890B43838102E083898B438381704705
:101610008185704781847047002202881D4B984263
:101620000ED01D4B98420BD0B0F1804F08D01B4B11
:10163000984205D01A4B984202D01A4B984204D1D6
:101640004FF68F731A404B881A43174B984207D0B6
:10165000164B984204D04FF6FF431A40CB881A43EA
:1016600002808B8883850B8803850A4B98420BD0B8
:10167000094B984208D00E4B984205D00D4B98422A
:1016800002D00D4B984201D10B7A0386012383824D
:1016900070470000002C014000340140000400406D
:1016A00000080040000C0040001000400014004002
:1016B0000040014000440140004801407FB505461C
:1016C0000C4601210420FFF7BDFDADF80850ADF830
:1016D00004400020ADF80A00ADF8060001A90D484D
:1016E000FFF79AFF012241210A48FFF788FF1E20D9
:1016F0008DF8000003208DF801008DF80200012014
:101700008DF803006846FFF753FD01210148FFF7FC
:101710004DFF7FBD0008004010B540F225511D4827
:1017200000F03EF810B31B4800F064F8C4B21A4849
:10173000008800F40040C8B91748008800F48040D1
:1017400060B10A2C03D000201349088020E0124821
:10175000008840F400401049088019E00D2C06D1A3
:101760000D48008840F480400B49088010E00A488A
:101770000088C0F30D0009490C5407480088401C3C
:101780000549088008460088C72801DD0020088038
:1017900010BD000000380140180000205401002056
:1017A00070B50246002400230025002040F66A168A
:1017B000B14200D100BFC1F3421501F01F03012661
:1017C00006FA03F3012D02D19689334006E0022D7B
:1017D00002D1168A334001E0968A33400C1201266A
:1017E00006FA04F41688344013B10CB1012000E06D
:1017F000002070BD01468888C0F30800704700BF14
:10180000FEE730380A2801D20120704700207047D7
:1018100000BF704710B56FF00400FFF75FFE0A4885
:1018200000680A49B0FBF1F00949087008460078E1
:1018300000EB4001C1EBC0104FF6FF7101EAC000A0
:101840000449088010BD00000000002000127A004A
:101850001A0000201C0000200146114A12884A4349
:101860004FF0E0235A6100229A611A46126942F051
:1018700001021A6100BF4FF0E022106900F001027E
:101880001AB100F48032002AF5D04FF0E02212693C
:1018900022F001024FF0E0231A6100229A617047A2
:1018A0001C00002000BF054A128802F04002002AF6
:1018B000F9D0C2B2014B1B1D1A807047003801409D
:1018C00008B5FFF7A7FFFFF71DFBFEF73FFF00205E
:1018D0004FF478431B4A01460090FFF707FC0020B5
:1018E0001F23184A30210090FFF700FC00204FF41E
:1018F0007873144A60210090FFF7F8FB002040F253
:10190000FF33104A90210090FFF7F0FB00204DF2CA
:1019100082330C4AC0210090FFF7E8FB00204FF60D
:101920003F33084AF0210090FFF7E0FB00204AF621
:10193000101305A24FF490710090FFF7D7FB00BF82
:10194000FEE70000AC30000849206C6F7665207916
:101950006F75206D6F7265207468616E2049206319
:10196000616E207361792C747769636520617320DF
:101970006D75636820746F6D6F72726F772C68007D
:10198000014608687047000030B595B0054613ABB6
:1019900012AA09A9284600F039FA044614B12046D3
:1019A00015B030BD0020149026E0224909689DF84A
:1019B000502001EBC20113AB11AA486801A900F045
:1019C00025FA04460CB12046EAE709A901A800F06F
:1019D000BBFC60B99DF844009DF84810884201DDC9
:1019E0000220DDE79DF85000124988750AE09DF855
:1019F0005000401CC0B214900E48007D9DF850105D
:101A00008842D2DC00BF0B48007D9DF85010884210
:101A100001D10420C4E714A9284600F0D7FA0446EF
:101A20000CB12046BCE79DF85000024948750020E3
:101A3000B6E700003C0000202DE9F0419AB09C4838
:101A4000847D007DA04202DC1AB0BDE8F081984997
:101A5000096801EBC40106AB07AA486808A900F0B1
:101A6000D5F908A993A0FEF703FC002644E09048AE
:101A7000008B0121B1400840D8B122218FA0FEF790
:101A8000F7FB304600F028FB8949243147183946D6
:101A90008BA0FEF7EDFB222188A0FEF7E9FB304684
:101AA00000F01AFB82492431084410A941F82600AD
:101AB00018E0304600F010FB7D492431085810A989
:101AC00041F826007A48C07D30B910A850F8261099
:101AD0007CA0FEF7CDFB05E010A850F826107AA0F8
:101AE000FEF7C6FB9DF81C00401EB04202D078A055
:101AF000FEF7BEFB701CC6B29DF81C008642B6DB2A
:101B000074A0FEF7B5FB00F039FB6948407D0B2857
:101B10000DD2DFE800F0060D151E27323F4E5F7232
:101B200087006349096851F834008047054690E012
:101B30005F4A126852F8341010988847054688E0CA
:101B40005B4B1B6853F83420DDE9100190470546D4
:101B50007FE0574F3F6857F8343010A807C89847C0
:101B6000054676E0DFF848C1DCF800C05CF8347068
:101B700010A80FC8B84705466BE01498DFF830C1CD
:101B80000090DCF800C05CF8347010A80FC8B847AB
:101B900005465EE0DDE91401DFF814C1CDE900017E
:101BA000DCF800C05CF8347010A80FC8B8470546D0
:101BB0004FE0DDE914121698DFF8F4C0CDE9001209
:101BC0000290DCF800C05CF8347010A80FC8B84769
:101BD00005463EE0DDE91423DDE91610DFF8D0C04C
:101BE000CDE90023CDE90210DCF800C05CF83470C8
:101BF00010A80FC8B84705462BE0DDE91523DDE93D
:101C00001710CDE90123CDE903101498DFF8A0C027
:101C10000090DCF800C05CF8347010A80FC8B8471A
:101C2000054616E0DDE91623DDE91810CDE90223AB
:101C3000CDE90410DDE91401DFF874C0CDE900013D
:101C4000DCF800C05CF8347010A80FC8B84705462F
:101C500000BF00BF00F050FA9DF8180001280CD119
:101C60001348C07D20B929461BA0FEF701FB07E001
:101C700029461BA0FEF7FCFA02E018A0FEF7F8FACE
:101C80000B4890F8EC0088B10948D0F8F0000A2120
:101C9000B0FBF1F201FB12070548D0F8F000B0FBF1
:101CA000F1F83A46414611A0FEF7E2FA00BFCBE652
:101CB0003C0000200D0A2573280000002563000069
:101CC00025730000256C7500305825580000000071
:101CD0002C000000290000003D256C753B0D0A001A
:101CE0003D305825583B0D0A0000000046756E63D4
:101CF00074696F6E2052756E2054696D653A256463
:101D00002E2531646D730D0A00000000F0B5034606
:101D10001546002000220026002455E01F782C2FB5
:101D200001D104B901221F78292F01D01F780FB9E2
:101D300004B94AE0002E34D11F78302F02DB1F781F
:101D4000392F11DD1F78612F02DB1F78662F0BDD25
:101D50001F78412F02DB1F78462F05DD1F78582F93
:101D600002D01F78782F0CD102B12EE01F78612F9E
:101D700003DB1F78203F0F7001E01F780F70491CB4
:101D80001FE01F78222F04D102B11EE0012601249A
:101D900017E01F78202F14D01F782C2F11D0FF268A
:101DA00013E01F78222F00D1002402B10DE044B1CE
:101DB0001F785C2F02D15B1C471CF8B21F780F7094
:101DC000491C471CF8B25B1CA8E700BF00270F7036
:101DD0002E70F0BD10B50446002010700BE0207886
:101DE0000870641C491C1078401C107010789842D0
:101DF00001DB012010BD2078202802D020780028A7
:101E0000EDD10020087000BFF4E700002DE9FF4F7E
:101E100085B0804689460027002004900390012069
:101E200002904FF0000B002544461DE0207820284A
:101E300016D005F07F00052812DA0DB945F08005AF
:101E400005F07F00042803D120782A2800D00EE076
:101E5000207805F07F010DF80100681CC5B202E092
:101E6000852D00D103E0641C20780028DED100BF5E
:101E70008DB1002005F07F010DF8010051A16846E9
:101E800000F062FA18B900210898017002E00121FF
:101E90000898017000254FF0000A444614E0641CC5
:101EA0000AF1010000F0FF0A2078202802D02078F3
:101EB0002A2809D1204600F0D7F90646282E03D05B
:101EC0002A2E01D0CDF810A02078282802D0207822
:101ED0000028E4D14446049810B10498401C0444FE
:101EE0004FF0000A002654E0207810B94FF0010AA4
:101EF00050E02078282803D116B9781CC7B213E027
:101F00002078292808D13EB917B1781EC7B201E060
:101F10004FF0010A47B93DE02078222804D10EB9DC
:101F2000012000E00020064647B9207820282FD065
:101F3000207889F8000009F1010929E020782C288F
:101F400004D101200290681CC5B214E0207820283A
:101F500011D0207828280ED04DB9BBF1050F06DA34
:101F600020780DF80B000BF1010000F0FF0B029838
:101F7000401CC0B20290012F0AD10298022807D15A
:101F80000298401CC0B202900398401CC0B203905B
:101F9000641CA9E700BF0398012809D100200DF8AF
:101FA0000B0008A1684600F0CFF908B900200390A3
:101FB000079903980870002089F80000504609B07E
:101FC000BDE8F08F766F6964000000002DE9F043F2
:101FD000B5B005460F460024002604E000213D4828
:101FE0008155701CC6B20A2EF8DB06E06D1C2878FD
:101FF00018B9012035B0BDE8F08328782828F5D13C
:102000006D1C61E034AA69462846FFF77FFE06464C
:1020100035449DF8D00020B1012827D0FF284CD1AD
:1020200049E09DF8000000B333A9684600F027F9A5
:1020300006460EB10220DDE7204600F04DF82549A6
:102040000A31339A0A50A1F12400008B0121A140EA
:10205000884320491A39088304211E480155601C11
:10206000C4B20A2C01DD0320C4E726E0684600F074
:1020700087F9401C00F0FF08204600F02DF81549B4
:102080000A3100EB01094946684600F06EF9114833
:102090001A38018B0120A040014388B20D491A393A
:1020A00008830C4800F80480601CC4B20A2C01DDCF
:1020B00003209FE701E002209CE700BF2878292841
:1020C00001D0287800B900E09CE700BF3C700020F8
:1020D00090E700005600002002460020002105E0A5
:1020E000044B5B5C0344D8B24B1CD9B29142F7DB82
:1020F000704700005600002010B501210D48FFF781
:1021000064FA012808D10C48D0F8F0004FF6FF71AE
:1021100008440949C1F8F0000648FFF753FA064998
:10212000D1F8F01008440449C1F8F0000846D0F88E
:10213000F00010BD000800403C00002010B504462F
:1021400004EBC40000EB04100122C2EB800081B25A
:102150004FF47A70FFF7B2FA01200149C87510BD3B
:102160003C00002010B50246012000E050430B1E49
:10217000A1F10104E1B2F9D110BD000010B50121B7
:102180000848FFF70DFA4FF6FF710648FFF740FACF
:1021900000210448FFF73EFA00200349C1F8F0008F
:1021A00010BD0000000800403C00002070B51D4834
:1021B000008800F40040002833D01A480578002039
:1021C00019494855194881681748884704461CB979
:1021D0001649C868804721E0134800F0DDF805463D
:1021E000012D00D02C46CCB1012C06D0022C08D0F9
:1021F000032C0AD0042C10D10BE00DA0FEF738F808
:102200000BE00EA0FEF734F807E00FA0FEF730F861
:1022100003E010A0FEF72CF800BF00BF002001492A
:10222000088070BD18000020540100203C000020F0
:10223000BAAFCAFDB4EDCEF3210D0A00B2CECAFD8D
:10224000B4EDCEF3210D0A00B2CECAFDCCABB6E0A0
:10225000210D0A00CEB4D5D2B5BDC6A5C5E4B5C41E
:10226000BAAFCAFD210D0A000146491C00E0491C15
:102270000878202801D10029F9D1087870472DE984
:10228000F04307460E4600254FF00A083C46002062
:1022900030601FE02078392802DC207830280ADA04
:1022A0002078462802DC2078412804DA2078582853
:1022B00009D1012D07D12078412801DB4FF010080A
:1022C000681CC5B205E0207800B904E00120BDE833
:1022D000F083641CDEE700BF3C46B8F1100F0FD15D
:1022E000032D01DA0220F2E72078302806D1607849
:1022F000582803D1A41CA81EC5B204E00320E6E7B9
:102300000DB90420E3E71BE00DB1681EC5B22078CB
:10231000392806DC2078302803DB2078A0F130094A
:1023200002E02078A0F1370929464046FFF71AFF5E
:10233000316809FB00103060641C207800B900E0AF
:10234000E2E700BF0020C2E702460AE010780B78FF
:10235000984201D001207047107800B902E0521C69
:10236000491CF3E700BF0020F5E706E002780A7099
:10237000027802B902E0401C491CF7E700BF704731
:102380000146002005E00A7802B903E0421CD0B201
:10239000491CF8E700BF704710B58CB004461E23F7
:1023A0000BAA03A92046FFF715FD0090009810B175
:1023B00001200CB010BD9DF82C00044400200B90AF
:1023C0000EE040489DF82C2050F8221003A8FFF79B
:1023D000BBFF00B908E09DF82C00401CC0B20B9078
:1023E0009DF82C000728ECD300BF9DF82C0007288F
:1023F00063D2DFE800F004053C5E6564630000BF63
:1024000031A0FDF735FF31A0FDF732FF3FA0FDF70A
:102410002FFF4EA0FDF72CFF5CA0FDF729FF6BA05E
:10242000FDF726FF79A0FDF723FF86A0FDF720FF2B
:102430008BA0FDF71DFF90A0FDF71AFF94A0FDF7FC
:1024400017FF99A0FDF714FF9EA0FDF711FFA4A0B0
:10245000FDF70EFFB0A0FDF70BFFBDA0FDF708FFD5
:10246000C8A0FDF705FFD4A0FDF702FF9AE216A071
:10247000FDF7FEFEE0A0FDF7FBFE00200B900EE056
:10248000ED4800689DF82C2000EBC2004168EBA0ED
:10249000FDF7EEFE9DF82C00401CC0B20B90E64804
:1024A000007D9DF82C108842EADC07A0FDF7E0FED5
:1024B00078E205A0FDF7DCFEC4E171E245E219E235
:1024C000ECE10000300100200D0A00002D2D2D2D23
:1024D0002D2D2D2D2D2D2D2D2D2D2D2D2D2D2D2D2C
:1024E0002D2D2D2D55534D4152542056332E312D27
:1024F0002D2D2D2D2D2D2D2D2D2D2D2D2D2D2D2D0C
:102500002D2D2D2D2D2D2D200D0A000020202020D9
:1025100055534D415254CAC7D3C9414C49454E54F5
:10252000454BBFAAB7A2B5C4D2BBB8F6C1E9C7C96B
:10253000B5C4B4AEBFDAB5F7CAD4BBA5BDBBD7E945
:10254000BCFE2CCDA8B9FD200D0A0000CBFC2CC48C
:10255000E3BFC9D2D4CDA8B9FDB4AEBFDAD6FACAAA
:10256000D6B5F7D3C3B3CCD0F2C0EFC3E6B5C4C879
:10257000CEBACEBAAFCAFD2CB2A2D6B4D0D02ED22B
:10258000F2B4CB2CC4E3BFC90D0A0000D2D4CBE611
:10259000D2E2B8FCB8C4BAAFCAFDB5C4CAE4C8EB4D
:1025A000B2CECAFD28D6A7B3D6CAFDD7D6283130B9
:1025B0002F3136BDF8D6C629A1A2D7D6B7FBB4AE07
:1025C000A1A2BAAFCAFDC8EB0D0A0000BFDAB5D8A8
:1025D000D6B7B5C8D7F7CEAAB2CECAFD292CB5A5B5
:1025E000B8F6BAAFCAFDD7EEB6E0D6A7B3D631304B
:1025F000B8F6CAE4C8EBB2CECAFD2CB2A2D6A7B3D5
:10260000D6BAAFCAFDB7B5200D0A0000BBD8D6B503
:10261000CFD4CABE2ED0C2D4F6B2CECAFDCFD4CA51
:10262000BEBDF8D6C6C9E8D6C3B9A6C4DC2CD0C294
:10263000D4F6BDF8D6C6D7AABBBBB9A6C4DC2E0D4E
:102640000A000000BCBCCAF5D6A7B3D63A777777A4
:102650002E6F70656E6564762E636F6D0D0A0000D7
:1026600055534D415254D3D037B8F6CFB5CDB3C33F
:10267000FCC1EE3A0D0A00003F3A20202020202025
:10268000BBF1C8A1B0EFD6FAD0C5CFA20D0A0000A9
:1026900068656C703A202020BBF1C8A1B0EFD6FA73
:1026A000D0C5CFA20D0A00006C6973743A202020B7
:1026B000BFC9D3C3B5C4BAAFCAFDC1D0B1ED0D0A0D
:1026C0000A00000069643A2020202020BFC9D3C33B
:1026D000BAAFCAFDB5C44944C1D0B1ED0D0A0A0074
:1026E0006865783A20202020B2CECAFD3136BDF888
:1026F000D6C6CFD4CABE2CBAF3B8FABFD5B8F12B20
:10270000CAFDD7D6BCB4D6B4D0D0BDF8D6C6D7AAE9
:10271000BBBB0D0A0A0000006465633A202020203C
:10272000B2CECAFD3130BDF8D6C6CFD4CABE2CBA9F
:10273000F3B8FABFD5B8F12BCAFDD7D6BCB4D6B41E
:10274000D0D0BDF8D6C6D7AABBBB0D0A0A00000080
:1027500072756E74696D653A312CBFAAC6F4BAAF52
:10276000CAFDD4CBD0D0BCC6CAB13B302CB9D8B18D
:10277000D5BAAFCAFDD4CBD0D0BCC6CAB13B0D0AC6
:102780000A000000C7EBB0B4D5D5B3CCD0F2B1E0AD
:10279000D0B4B8F1CABDCAE4C8EBBAAFCAFDC3FB36
:1027A000BCB0B2CECAFDB2A2D2D4BBD8B3B5BCFCC9
:1027B000BDE1CAF82E0D0A002D2D2D2D2D2D2D2D0C
:1027C0002D2D2D2D2D2D2D2D2D2D2D2D2D2D2D2D39
:1027D0002D2D414C49454E54454B2D2D2D2D2D2D44
:1027E0002D2D2D2D2D2D2D2D2D2D2D2D2D2D2D2D19
:1027F0002D2D2D200D0A00002D2D2D2D2D2D2D2DB3
:102800002D2D2D2D2D2D2D2D2D2D2D2D2D2D2D2DF8
:102810002DBAAFCAFDC7E5B5A52D2D2D2D2D2D2D1A
:102820002D2D2D2D2D2D2D2D2D2D2D2D2D2D2D2DD8
:102830002D2D2D2D200D0A003C00002025730D0AA2
:102840000000000059A0FDF713FD00200B901AE0D6
:10285000664909689DF82C2001EBC20101AB02AA70
:10286000486803A9FFF7D2FA604800689DF82C1069
:1028700050F8312003A95EA0FDF7FAFC9DF82C006A
:10288000401CC0B20B905948007D9DF82C10884226
:10289000DEDCAFF2CC30FDF7EBFC83E0AFF2D830FA
:1028A000FDF7E6FC0BAA03A92046FFF72FFA9DF8D7
:1028B0002C00C8B9694603A8FFF7E1FC0B909DF80E
:1028C0002C0020B94FA00099FDF7D2FC0EE09DF836
:1028D0002C00042801D002206BE54DA0FDF7C8FCB8
:1028E00001204249C87501E0022062E547A0FDF7DA
:1028F000BFFC57E045A0FDF7BBFC0BAA03A920468F
:10290000FFF704FA9DF82C00C8B9694603A8FFF741
:10291000B6FC0B909DF82C0020B942A00099FDF761
:10292000A7FC0EE09DF82C00042801D0022040E511
:102930003FA0FDF79DFC00202C49C87501E0022056
:1029400037E532A0FDF794FC2CE030A0FDF790FCB9
:102950000BAA03A92046FFF7D9F99DF82C00C8B9A6
:10296000694603A8FFF78BFC0B909DF82C0078B903
:102970001E49009881F8EC00084690F8EC0018B168
:1029800030A0FDF775FC07E035A0FDF771FC03E012
:1029900002200EE502200CE51CA0FDF769FC01E019
:1029A000012006E500BF002003E500002D2D2D2DA0
:1029B0002D2D2D2D2D2D2D2D2D2D2D2D2D2D2D2D47
:1029C0002D2D2D2D2DBAAFCAFD204944202D2D2DA2
:1029D0002D2D2D2D2D2D2D2D2D2D2D2D2D2D2D2D27
:1029E0002D2D2D2D2D2D2D2D200D0A003C000020EC
:1029F00025732069642069733A0D0A3058253038F0
:102A0000580D0A004845583A305825580D0A00001C
:102A10003136BDF8D6C6B2CECAFDCFD4CABE210D5E
:102A20000A0000004445433A256C750D0A00000079
:102A30003130BDF8D6C6B2CECAFDCFD4CABE210D44
:102A40000A00000052756E2054696D652043616C68
:102A500063756C6174696F6E204F4E0D0A00000043
:102A600052756E2054696D652043616C63756C61AD
:102A700074696F6E204F46460D0A00000160704772
:102A80000000000000000000000000000000000046
:102A9000000000181818181818080008180000007E
:102AA0000000003424242400000000000000000086
:102AB0000000000016247F2424247E24240000002B
:102AC000000000083E6848681C1612127C101000B6
:102AD00000000061D296740810162949C600000053
:102AE000000000003C646438724ACE467F0000005B
:102AF0000000001818181800000000000000000076
:102B000000000004081810303030301010180C0489
:102B1000000000201008080C0404040C0818102001
:102B2000000000080A341C6A0800000000000000D1
:102B30000000000000001818187F18181800000086
:102B4000000000000000000000000018180830001D
:102B50000000000000000000003C00000000000039
:102B60000000000000000000000000181800000035
:102B70000000000206040C0808101020204000008D
:102B8000000000003C6642475B7342663C00000068
:102B90000000000018784808080808087E000000B7
:102BA000000000003C460606040810207E000000DD
:102BB000000000007C0606043C0202067C000000C7
:102BC000000000000C1C14246444FF0404000000F6
:102BD000000000007E6060607E0202067C00000053
:102BE000000000001E306048764242623C00000057
:102BF000000000007E0206040C08181030000000DF
:102C0000000000003C6242361C6642423C0000006C
:102C1000000000003C664242661A02047800000090
:102C20000000000000001818000000181800000044
:102C300000000000000018180000001818083000FC
:102C400000000000000004183060100C06000000B6
:102C500000000000000000007E007E000000000078
:102C6000000000000000301804060C1020000000D6
:102C7000000000301C0606061810001010000000AE
:102C80000000001C224141DDB5A5A5AF94C0403C29
:102C900000000000181C342426627E43C10000009E
:102CA000000000007C4642467C4242427C0000001C
:102CB000000000001E204040404040603E000000F8
:102CC000000000007C464243434342467800000037
:102CD000000000007E6060607E6060607E0000003A
:102CE000000000007E6060607E6060606000000048
:102CF000000000001E604040CE4242623E000000E4
:102D000000000000424242427E4242424200000035
:102D1000000000007E181818181818187E0000000F
:102D2000000000007C040404040404447800000053
:102D3000000000004244485070584C4442000000DB
:102D40000000000020202020202020203E00000045
:102D5000000000006266675F5B5BC1C1C1000000EC
:102D600000000000626272525A4A4E46460000005D
:102D7000000000003C6243C3C3C343623C00000048
:102D8000000000007C46424246784040400000007F
:102D9000000000003C6243C3C3C343623C180F0001
:102DA000000000007C6662667C6C64666200000065
:102DB000000000003E6040601C0602027C00000033
:102DC000000000007F1818181818181818000000C4
:102DD0000000000042424242424242623C00000087
:102DE00000000000C14342622624341C1800000089
:102DF00000000000C1C141495B5B766666000000CF
:102E00000000000043663418181C2466C30000004C
:102E100000000000C14266341C1818181800000099
:102E2000000000007E02040C181020607E000000EC
:102E30000000001C10101010101010101010101CAA
:102E4000000000402020101008080C0406020000BA
:102E50000000003C0C0C0C0C0C0C0C0C0C0C0C3C76
:102E600000000000181C24620000000000000000A8
:102E7000000000000000000000000000000000FF53
:102E80000000002010000000000000000000000012
:102E90000000000000003C06023E42467A000000AE
:102EA0000000004040405C62424242427C00000020
:102EB0000000000000001E20604060203E00000076
:102EC0000000000202023E62424242663A000000F6
:102ED0000000000000003C62427E40603E000000B6
:102EE0000000000F1810107E1010101010000000CD
:102EF0000000000000003F66426658403E43423CEE
:102F00000000004040405C624242424242000000F9
:102F10000000001818007808080808087E00000063
:102F2000000000040C007C040404040404040C7875
:102F3000000000606060626C78706864620000008D
:102F40000000007808080808080808087E0000004B
:102F5000000000000000764B4B4B4B4B4B00000039
:102F60000000000000005C62424242424200000059
:102F70000000000000003C62424342623C0000004E
:102F80000000000000005C62424242427C4040403F
:102F90000000000000003E62424242663A02020225
:102FA0000000000000006E7263606060600000005E
:102FB0000000000000003E20203C06027C000000D3
:102FC000000000001010FE10101010101E00000075
:102FD0000000000000004242424242663A00000007
:102FE000000000000000434266243418180000006E
:102FF000000000000000C1C15B5A5E666600000070
:1030000000000000000062261C181C266200000060
:1030100000000000000043426624341C181830E011
:103020000000000000007E060C1810207E0000004A
:103030000000000E18101010307010101010180E34
:103040000000080808080808080808080808080810
:1030500000000030180808080C0E0808080818308E
:103060000000000000000000714B0600000000009E
:1030700030313233343536373839414243444546AE
:1030800040305800303132333435363738396162A8
:1030900063646566403078000400000800000000AA
:1030A000000000020001000010000000CEE5D2BBCD
:1030B000BCD9C6DAD2BBCCECC3BBB3F6C8A5B3C986
:1030C000A3ACB9E2B8E3CDA8D0C5C1CBA3ACBAC319
:1030D000C0DBA3ACB5ABCAC7D3D6B8D0BEF5BBB9BD
:1030E000B2BBB4EDA3ACCDB4B2A2BFECC0D6D7C5D1
:1030F0007E000000766F69642077726974655F6195
:103100006464722875333220616464722C753332C2
:103110002076616C2900000075333220726561648D
:103120005F616464722875333220616464722900BF
:10313000766F6964204C43445F447261774C696EDA
:1031400065287531362073782C20753136207379D7
:103150002C207531362065782C2075313620657924
:103160002C75313620636F6C6F7229003F000000B0
:10317000646563006964000072756E74696D650052
:1031800068656C70000000006C69737400000000DA
:1031900068657800B4310008000000205401000088
:1031A0006C01000814320008540100202C070000B4
:1031B000C80100081184A24A04A009010203040600
:1031C00007080912F0144001061381191408183178
:1031D00014087D2A1408F4301408150E1B0830104A
:1031E000222414203D211B08892013391A1B08AD05
:1031F0000C1A034701DC1A6CF81A80041A88041AA6
:1032000074041A90041A70042A7818122A130808F1
:043210001210000098
:0400000508000131BD
:00000001FF
