:03000300010A00EF
:10025F001202B812020C8F0CE50C64017023050A10
:10026F00530A03E50A7002F50BE50AB40103750B97
:10027F0021E50AB40203750B42E50AB40303750BBB
:0F028F0063E50AFD7C007F017E0012000E80C433
:03000B0002015D92
:10015D00C0E0C0F0C0D075D000C000C004C005C064
:03016D0006C007C2
:10017000758AAE758CFB0509E50970020508AE08A5
:10018000FF7C007D641201B78C088D09AF0B7E00E7
:10019000C3E5099FE5089E5002D290C3E5099FE59B
:0601A000089E4002C2901F
:1001A600D007D006D005D004D000D0D0D0F0D0E013
:0101B6003216
:1002B8005389F0438901758AAE758CFBC28DD28C47
:0702C800D2A9D2AFC2B92296
:0A029E00EF1FAC0670011E4C600F4C
:0D02A80000750F027510C7D510FDD50FFAB7
:0302B50080E722BD
:10020C00E4F50DF50E20B10F7F14FE12029E30B1F5
:10021C00FD750D00750E0120B0107F147E001202CA
:10022C009E30B0FD750D00750E0220B2107F147E4D
:10023C000012029E30B2FD750D00750E0320B31036
:10024C007F147E0012029E30B3FD750D00750E04F6
:02025C00AF0EE3
:01025E00227D
:1002CF003F065B4F666D7D077F6F777C395E797177
:10000E00EE705BEF14B40800505490002675F003A8
:10001E00A4C58325F0C58373020066020062020048
:10002E005A02005602004E02004A02004202003EF0
:10003E00C2A28002D2A2C2A3C2A48022C2A2800205
:10004E00D2A2D2A3C2A48016C2A28002D2A2C2A3FE
:10005E00D2A4800AC2A28002D2A2D2A3D2A4EC70F1
:10006E0061EDB40900505B90007CF8282873020003
:10007E00BF02009702009C0200A10200A60200AB84
:10008E000200B00200B50200BA9002D080269002A3
:10009E00D180219002D2801C9002D380179002D47E
:1000AE0080129002D5800D9002D680089002D780E3
:1000BE00039002CFE493F5807F017E0012029EE44E
:0200CE00F580BB
:0100D000220D
:030000000200D12A
:0C00D100787FE4F6D8FD7581100201185C
:1001B700BC000BBE0029EF8DF084FFADF022E4CC2C
:1001C700F875F008EF2FFFEE33FEEC33FCEE9DECF5
:1001D700984005FCEE9DFE0FD5F0E9E4CEFD22ED3B
:1001E700F8F5F0EE8420D21CFEADF075F008EF2F85
:1001F700FFED33FD4007985006D5F0F222C398FD76
:050207000FD5F0EA2212
:1000DD0002025FE493A3F8E493A34003F68001F2D8
:1000ED0008DFF48029E493A3F85407240CC8C33324
:1000FD00C4540F4420C8834004F456800146F6DFF3
:10010D00E4800B0102040810204080900003E47E7F
:10011D00019360BCA3FF543F30E509541FFEE493E7
:10012D00A360010ECF54C025E060A840B8E493A3AE
:10013D00FAE493A3F8E493A3C8C582C8CAC583CAD9
:10014D00F0A3C8C582C8CAC583CADFE9DEE780BE91
:0100060000F9
:00000001FF
