:03000300010A00EF
:10013F0012018AE4F50B850B0A7F0A7E001201700B
:10014F00050BE50BC3946440ED750B64E50BD3947D
:10015F000040E0850B0A7F0A7E00120170150B80AC
:01016F00EBA4
:03000B000200EF01
:1000EF00C0E0C0F0C0D075D000C000C004C005C0D3
:0300FF0006C00731
:10010200758A91758CFF0509E50970020508C3958A
:100112000AE50894005004D2A18002C2A1AE08AF41
:0C012200097C007D6412009A8C088D0995
:10012E00D007D006D005D004D000D0D0D0F0D0E08B
:01013E00328E
:10018A005389F0438901758A91758CFFC28DD28C8F
:07019A00D2A9D2AFC2B922C5
:0A017000EF1FAC0670011E4C600F7B
:0D017A0000750C02750DC7D50DFDD50CFAF2
:0301870080E722EC
:0300000002000EED
:0C000E00787FE4F6D8FD75810D020055E6
:10009A00BC000BBE0029EF8DF084FFADF022E4CC4A
:1000AA00F875F008EF2FFFEE33FEEC33FCEE9DEC13
:1000BA00984005FCEE9DFE0FD5F0E9E4CEFD22ED59
:1000CA00F8F5F0EE8420D21CFEADF075F008EF2FA3
:1000DA00FFED33FD4007985006D5F0F222C398FD94
:0500EA000FD5F0EA2231
:10001A0002013FE493A3F8E493A34003F68001F2BC
:10002A0008DFF48029E493A3F85407240CC8C333E7
:10003A00C4540F4420C8834004F456800146F6DFB6
:10004A00E4800B0102040810204080900003E47E43
:10005A00019360BCA3FF543F30E509541FFEE493AB
:10006A00A360010ECF54C025E060A840B8E493A372
:10007A00FAE493A3F8E493A3C8C582C8CAC583CA9D
:10008A00F0A3C8C582C8CAC583CADFE9DEE780BE55
:0100060000F9
:00000001FF
