:10007000E4F50875A0FF120003EF60FA0508E50833
:05008000F4F5A080F181
:0A005600EF1FAC0670011E4C600F96
:0D00600000750B02750CC7D50CFDD50BFA11
:03006D0080E72207
:10000300E4F509F50A20B10F7F14FE12005630B152
:10001300FD750900750A0120B0107F147E001200DF
:100023005630B0FD750900750A0220B2107F147EA8
:100033000012005630B2FD750900750A0320B31093
:100043007F147E0012005630B3FD750900750A0453
:02005300AF0AF2
:010055002288
:0300000002008576
:0C008500787FE4F6D8FD75810C02007055
:00000001FF
