:1000F80073756E207869616F68756920697320006F
:10010800736F20636861726D696E6721007368653B
:10011800206D616B6573206D65006665656C207781
:0F012800656C6C0049206C696B6520686572001E
:100097001202A37BFF7A0079F87D017F0112021516
:1000A7007BFF7A0179087D057F021202157FA07E0A
:1000B7000F1202731202A37BFF7A0179157D017F6C
:1000C700011202157BFF7A0179227D057F02120258
:1000D700157FA07E0F1202731202A37BFF7A0179AC
:1000E7002C7D017F011202157FD07E0712027380DB
:0100F700A266
:0602B700C2A58F80D2A752
:0802BD007F027EEFDEFEDFFC94
:0102C5002216
:0A02D200C2A61202B7C2A70202BDC5
:10023800CFCDCFCECCCE1200427C007D0A12004238
:04024800ED2430FF72
:0A024C00D2A61202B7C2A70202BD3B
:10028D00AE07BE0104ED148006BE0209ED243F4405
:06029D0080FF1202D222D4
:1002A3007F381202D27F0C1202D27F061202D27F53
:0402B300010202D270
:0A02DC00AC0312028DAF0402024CC5
:060215008B228A238924DC
:10021B0012028DE4FDAB22AA23A9248D82758300E3
:0C022B00120003FF600612024C0D80E977
:0102370022A4
:0C01E2007F0AEA24FFFDE434FFFC7E00ED
:0801EE008E1E8F1F8C208D2155
:1001F6007F017E00E4FBEBC39521E5206480F87463
:0E0206008098500AAC1EAD1F1200300B80E82D
:0102140022C7
:040256008A118B126C
:10025A0012028DAA13EAD39400400D1201E2AC11E6
:08026A00AD121202381A80EDFA
:010272002269
:1001370012028DC3EA64809480400B7F2B12024C1D
:100147008A0D8B0E800E7F2D12024CC3E49BF50E99
:10015700E49AF50DAA0CEAD39400400D1201E2AC23
:090167000DAD0E1202381A80EDF4
:01017000226C
:040171008A168B1748
:1001750012028DAA18EAD3940040297F101201E4D7
:10018500AC16AD17CFCDCFCECCCE120042EF540F6B
:10019500FEC3940AEE5004243080022437FF120275
:0401A5004C1A80D19F
:0101A9002233
:0401AA008A1B8B1C05
:1001AE0012028DAA1DEAD394004028EA24FFFDE432
:1001BE0034FFFC7F027E001201EEAC1BAD1CCFCDD6
:1001CE00CFCECCCE120042EF54012430FF12024C9F
:0301DE001A80D2B2
:0101E10022FB
:0A027300EF1FAC0670011E4C600F77
:0D027D00007522027523C7D523FDD522FA96
:03028A0080E722E8
:030000000202C633
:0C02C600787FE4F6D8FD758124020097D3
:10000300BB010CE58229F582E5833AF583E02250B2
:1000130006E92582F8E622BBFE06E92582F8E222FC
:0D002300E58229F582E5833AF583E4932216
:10003000EF8DF0A4A8F0CF8CF0A428CE8DF0A42EE4
:02004000FE229E
:10004200BC000BBE0029EF8DF084FFADF022E4CCA2
:10005200F875F008EF2FFFEE33FEEC33FCEE9DEC6B
:10006200984005FCEE9DFE0FD5F0E9E4CEFD22EDB1
:10007200F8F5F0EE8420D21CFEADF075F008EF2FFB
:10008200FFED33FD4007985006D5F0F222C398FDEC
:050092000FD5F0EA2289
:00000001FF
