:10008700E4F508120003AF087E001200AB05087FF5
:08009700E87E0312006D80EE0B
:03002300020026B2
:10002600C0E0C0F0C083C082C0D075D000C000C0A0
:1000360001C002C003C004C005C006C00730980C4A
:100046008599A0AF997E001200ABC298D007D00662
:10005600D005D004D003D002D001D000D0D0D082B9
:07006600D083D0F0D0E0329E
:0A006D00EF1FAC0670011E4C600F7F
:0D00770000750902750AC7D50AFDD509FA02
:0300840080E722F0
:1000030075985043878053890F438920758BFA7500
:0B0013008DFAC2ABD28ED2AFD2AC226D
:0800AB008F993099FDC29922E2
:0300000002009F5C
:0C009F00787FE4F6D8FD75810A02008726
:00000001FF
