:1007D7002020002000202020202D20202D00202D4B
:0707E70020203A20203A0017
:10000E008F09E52E7014E52DB4010F7BFF7A077969
:10001E00D77D097F0212075F8011E513FB3395E050
:10002E00FA750E027D097F021207A0E52EB40114A7
:10003E00E52DB4010F7BFF7A0779D77D067F02127B
:10004E00075F8011E514FB3395E0FA750E027D060D
:10005E007F021207A0E52EB40214E52DB4010F7B2A
:10006E00FF7A0779D77D037F0212075F8011E515AE
:10007E00FB3395E0FA750E027D037F021207A0E5B1
:10008E002EB40314E52DB4010F7BFF7A0779D77DCB
:10009E00097F0112075F8011E516FB3395E0FA75B3
:1000AE000E027D097F011207A0E52EB40414E52D82
:1000BE00B4010F7BFF7A0779D77D067F0112075FA8
:1000CE008011E517FB3395E0FA750E027D067F0170
:1000DE001207A0E52EB40514E52DB4010F7BFF7AAF
:1000EE000779DA7D017F0212075F8011E518FB3375
:1000FE0095E0FA750E017D017F021207A0E52EB480
:10010E000612E52DB4010D7BFF7A0779D77D037FAB
:10011E000102075FE519FB3395E0FA750E027D03C8
:06012E007F011207A02270
:1002FE007413252EF806D3E513648094BB4003E4F3
:10030E00F513D3E514648094BB4003E4F514D3E5F0
:10031E0015648094984003E4F515E5176401602395
:10032E00E5176403601DE51764056017E51764079C
:10033E006011E5176408600BE517640A6005E517A0
:10034E00B40C0ED3E5166480949F403DE4F5168000
:10035E0038E517B40228E51975F0041203BBAFF0A7
:10036E00EF700DE51975F0641203BBAFF0EF600787
:10037E00E51675F01D800CE51675F01E8005E51668
:10038E0075F01F1203BB85F016E51775F00D1203FD
:10039E00BB85F017E51875F0081203BB85F018E55C
:0D03AE001975F0651203BB85F01902070EEA
:10022A007413252EF816C3E5136480948050037561
:10023A00133BC3E51464809480500375143BC3E5F3
:10024A0015648094805003751518E51764016023BE
:10025A00E5176403601DE51764056017E517640771
:10026A006011E5176408600BE517640A6005E51775
:10027A00B40C0EC3E51664809480505375161F8023
:10028A004EE5176402703CE51975F0041203BBAF22
:10029A00F0EF7013E51970047F0180027F00EF759B
:1002AA00F06484E5F0600EC3E51664809480501F04
:1002BA0075161C801AC3E516648094805011751651
:1002CA001D800CC3E51664809480500375161EC306
:1002DA00E51764809480500375170CC3E518648091
:1002EA0094805003751807C3E519648094805003FD
:0402FA0075196322ED
:100134001207EE12085C12081B12070E7BFF7A07E7
:1001440079DC7D017F0112075F7BFF7A0779E57D0A
:10015400017F0212075F12073B750E027B147A00BF
:100164007D017F011207A0E519FB3395E0FA750EB6
:10017400027D037F011207A0E517FB3395E0FA75B2
:100184000E027D067F011207A0E516FB3395E0FA07
:10019400750E027D097F011207A0E518FB3395E077
:1001A400FA750E017D017F021207A0E515FB339558
:1001B400E0FA750E027D037F021207A0E514FB33FB
:1001C40095E0FA750E027D067F021207A0E513FB87
:1001D4003395E0FA750E027D097F021207A012051D
:1001E400568F08E5086401600302015AF52EF508EC
:1001F400E5086401700302015AAF2E12000E1205C5
:10020400568F08E508B4020C052EE52EC39407406A
:1002140003E4F52EE508B403031202FEE508B40472
:06022400CF12022A80CA7D
:03000B00020631B9
:09063100C0E0C0D075D000C00784
:10063A00758A66758CFC052CE52C7002052BC39413
:10064A00F4E52B94014012752B00752C00E52D70F2
:09065A00047F0180027F008F2D56
:07066300D007D0D0D0E03237
:0700030080828486888A8C4C
:09083E000713002517030C051532
:05085C00C2B5C2B62286
:0205A900AD079C
:1005AB00E4F9430501D2B5FB74017E00A803088072
:1005BB0005C333CE33CED8F9FFEDF582EF55822448
:1005CB00FF92B4C2B6D2B60BBB08DDE4FBD2B6C207
:1005DB00B630B40D7401A803088002C333D8FC42B3
:0B05EB00010BBB08E8C2B4C2B5AF01B1
:0105F60022E2
:0604FD008C0A8D0BAB0719
:10050300D2B5E4FD74017E00A805088005C333CE8F
:1005130033CED8F9FFEBF582EF558224FF92B4D2A4
:10052300B6C2B60DBD08DDE4FD74017E00A8050862
:100533008005C333CE33CED8F9FFE50A5EFEE50B63
:100543005F4E24FF92B4D2B6C2B60DBD08DBC2B56E
:02055300C2B430
:010555002283
:10073B00E4FCEC90000393FF1205A9EFC4540F7572
:10074B00F00AA4FEEF540F2EFE74132CF8A6060C21
:03075B00BC07DFF9
:01075E002278
:10070E00E4FA74132AF8E6F975F00A84C454F0FF7B
:10071E00E975F00A84EF25F0F509EA90000393FFDE
:0C072E00E509FD7C001204FD0ABA07D6A4
:01073A00229C
:06082F00C2A58F80D2A7D4
:080835007F027EEFDEFEDFFC16
:01083D002298
:0A084800C2A612082FC2A70208354D
:10078200CFCDCFCECCCE12041C7C007D0A12041C2D
:04079200ED2430FF23
:0A079600D2A612082FC2A7020835F0
:10080500AE07BE0104ED148006BE0209ED243F4487
:0608150080FF12084822DA
:10081B007F381208487F0C1208487F061208487F61
:04082B000102084876
:0A085200AC03120805AF040207967C
:06075F008B0A8A0B890CD5
:10076500120805E4FDAB0AAA0BA90C8D827583005E
:0C0775001203DDFF60061207960D80E9FC
:010781002255
:0C06DB007F0AEA24FFFDE434FFFC7E00EF
:0806E7008E0F8F108C118D1293
:1006EF007F017E00E4FBEBC39512E5116480F87483
:0E06FF008098500AAC0FAD1012040A0B80E870
:01070D0022C9
:0407A0008A0C8B0D27
:1007A400120805AA0EEAD39400400D1206DBAC0C25
:0807B400AD0D1207821A80ED61
:0107BC00221A
:1005F700120805C3EA64809480400B7F2B1207968C
:100607008A1F8B20800E7F2D120796C3E49BF5204F
:10061700E49AF51FAA1EEAD39400400D1206DBAC3C
:090627001FAD201207821A80EDBC
:0106300022A7
:04066A008A238B2430
:10066E00120805AA25EAD3940040297F101206DD50
:10067E00AC23AD24CFCDCFCECCCE12041CEF540F75
:10068E00FEC3940AEE5004243080022437FF120772
:04069E00961A80D157
:0106A2002235
:0406A3008A288B29ED
:1006A700120805AA2AEAD394004028EA24FFFDE4A9
:1006B70034FFFC7F027E001206E7AC28AD29CFCDC0
:1006C700CFCECCCE12041CEF54012430FF12079674
:0306D7001A80D2B4
:0106DA0022FD
:0A07BD00EF1FAC0670011E4C600F28
:0D07C70000750B02750CC7D50CFDD50BFAA3
:0307D40080E72299
:10055600E4F509F50A20B10F7F14FE1207BD30B18C
:10056600FD750900750A0120B0107F147E00120780
:10057600BD30B0FD750900750A0220B2107F147EE9
:10058600001207BD30B2FD750900750A0320B310CD
:100596007F147E001207BD30B3FD750900750A048D
:0205A600AF0A9A
:0105A8002230
:1007EE005389F0438901758A66758CFCC28DD28C53
:0707FE00D2A9D2AFC2B9225B
:0300000002047186
:0C047100787FE4F6D8FD75812E0204B8F7
:1003BB00C2D530F707B2D563F0FF05F030E70CB2CA
:1003CB00D5F4048463F0FF05F080018430D502F48A
:0203DB000422FA
:1003DD00BB010CE58229F582E5833AF583E02250D5
:1003ED0006E92582F8E622BBFE06E92582F8E2221F
:0D03FD00E58229F582E5833AF583E4932239
:10040A00EF8DF0A4A8F0CF8CF0A428CE8DF0A42E06
:02041A00FE22C0
:10041C00BC000BBE0029EF8DF084FFADF022E4CCC4
:10042C00F875F008EF2FFFEE33FEEC33FCEE9DEC8D
:10043C00984005FCEE9DFE0FD5F0E9E4CEFD22EDD3
:10044C00F8F5F0EE8420D21CFEADF075F008EF2F1D
:10045C00FFED33FD4007985006D5F0F222C398FD0E
:05046C000FD5F0EA22AB
:10047D00020134E493A3F8E493A34003F68001F260
:10048D0008DFF48029E493A3F85407240CC8C33380
:10049D00C4540F4420C8834004F456800146F6DF4F
:1004AD00E4800B010204081020408090083EE47E99
:1004BD00019360BCA3FF543F30E509541FFEE49344
:1004CD00A360010ECF54C025E060A840B8E493A30B
:1004DD00FAE493A3F8E493A3C8C582C8CAC583CA36
:1004ED00F0A3C8C582C8CAC583CADFE9DEE780BEEE
:0108470000B0
:00000001FF
