:100182000000787C3E3E7C78000000F0F87C7CF831
:0A019200F000003C3E1F1F3E3C0041
:10000E001201B6E50C7019F50DE50D90018393FD07
:10001E007C00AF0D120160050DE50DC3940840E99B
:10002E00E50CB4011AE4F50DE50D90018293FD7C0B
:10003E0000AF0D120160050DE50DC3940840E9E512
:10004E000CB4021AE4F50DE50D90018C93FD7C00C5
:10005E00AF0D120160050DE50DC3940840E9E50CE6
:10006E00B4031AE4F50DE50D90018493FD7C00AF09
:10007E000D120160050DE50DC3940840E9E50C6411
:10008E00047080F50DE50DC394084003020011E5E0
:10009E000D90019493FD7C00AF0D120160050D8053
:0100AE00E46D
:03000B000200AF41
:1000AF00C0E0C0F0C083C082C0D075D000C000C017
:0D00BF0001C002C003C004C005C006C00798
:1000CC00758A66758CFCE50B2401F50BE4350AF595
:1000DC000AE43509F509E43508F508E47FE87E0300
:1000EC00FDFCAB0BAA0AA909A808D31201CD401834
:1000FC00050CE50CD394044003750C00750B0075CE
:08010C000A00750900750800E6
:10011400D007D006D005D004D003D002D001D0003F
:0B012400D0D0D082D083D0F0D0E032E9
:0A019C00EF1FAC0670011E4C600F4F
:0D01A60000750F027510C7D510FDD50FFABA
:0301B30080E722C0
:02012F00AD071A
:10013100C2B5C2B6E4FB74807E00A803088006CE77
:10014100A2E713CE13D8F8FFEDF582EF558224FF15
:0E01510092B4D2B6C2B60BBB08DCD2B5C2B5B2
:01015F00227D
:100160008F0EAF0512012FAF0E7480A80708800212
:10017000C313D8FCF4F5807F017E0012019C7580CA
:02018000FF225C
:1001B6005389F0438901758A66758CFCC28DD28C91
:0701C600D2A9D2AFC2B92299
:030000000201DE1C
:0C01DE00787FE4F6D8FD75811002000E59
:1001CD00EB9FF5F0EA9E42F0E99D42F0E89C45F088
:0101DD0022FF
:00000001FF
